{
  "address": "0xbaE88563e254001B3830483c0F3F07451F704a96",
  "abi": [
    {
      "inputs": [
        {
          "internalType": "address",
          "name": "_asset",
          "type": "address"
        },
        {
          "internalType": "address",
          "name": "_aavePoolAddressProvider",
          "type": "address"
        },
        {
          "internalType": "uint256",
          "name": "_baseExchangeRate",
          "type": "uint256"
        }
      ],
      "stateMutability": "nonpayable",
      "type": "constructor"
    },
    {
      "inputs": [
        {
          "internalType": "address",
          "name": "spender",
          "type": "address"
        },
        {
          "internalType": "uint256",
          "name": "allowance",
          "type": "uint256"
        },
        {
          "internalType": "uint256",
          "name": "needed",
          "type": "uint256"
        }
      ],
      "name": "ERC20InsufficientAllowance",
      "type": "error"
    },
    {
      "inputs": [
        {
          "internalType": "address",
          "name": "sender",
          "type": "address"
        },
        {
          "internalType": "uint256",
          "name": "balance",
          "type": "uint256"
        },
        {
          "internalType": "uint256",
          "name": "needed",
          "type": "uint256"
        }
      ],
      "name": "ERC20InsufficientBalance",
      "type": "error"
    },
    {
      "inputs": [
        {
          "internalType": "address",
          "name": "approver",
          "type": "address"
        }
      ],
      "name": "ERC20InvalidApprover",
      "type": "error"
    },
    {
      "inputs": [
        {
          "internalType": "address",
          "name": "receiver",
          "type": "address"
        }
      ],
      "name": "ERC20InvalidReceiver",
      "type": "error"
    },
    {
      "inputs": [
        {
          "internalType": "address",
          "name": "sender",
          "type": "address"
        }
      ],
      "name": "ERC20InvalidSender",
      "type": "error"
    },
    {
      "inputs": [
        {
          "internalType": "address",
          "name": "spender",
          "type": "address"
        }
      ],
      "name": "ERC20InvalidSpender",
      "type": "error"
    },
    {
      "anonymous": false,
      "inputs": [
        {
          "indexed": true,
          "internalType": "address",
          "name": "owner",
          "type": "address"
        },
        {
          "indexed": true,
          "internalType": "address",
          "name": "spender",
          "type": "address"
        },
        {
          "indexed": false,
          "internalType": "uint256",
          "name": "value",
          "type": "uint256"
        }
      ],
      "name": "Approval",
      "type": "event"
    },
    {
      "anonymous": false,
      "inputs": [
        {
          "indexed": true,
          "internalType": "address",
          "name": "caller",
          "type": "address"
        },
        {
          "indexed": true,
          "internalType": "address",
          "name": "owner",
          "type": "address"
        },
        {
          "indexed": false,
          "internalType": "uint256",
          "name": "assets",
          "type": "uint256"
        },
        {
          "indexed": false,
          "internalType": "uint256",
          "name": "shares",
          "type": "uint256"
        }
      ],
      "name": "Deposit",
      "type": "event"
    },
    {
      "anonymous": false,
      "inputs": [
        {
          "indexed": true,
          "internalType": "address",
          "name": "from",
          "type": "address"
        },
        {
          "indexed": true,
          "internalType": "address",
          "name": "to",
          "type": "address"
        },
        {
          "indexed": false,
          "internalType": "uint256",
          "name": "value",
          "type": "uint256"
        }
      ],
      "name": "Transfer",
      "type": "event"
    },
    {
      "anonymous": false,
      "inputs": [
        {
          "indexed": true,
          "internalType": "address",
          "name": "caller",
          "type": "address"
        },
        {
          "indexed": true,
          "internalType": "address",
          "name": "receiver",
          "type": "address"
        },
        {
          "indexed": true,
          "internalType": "address",
          "name": "owner",
          "type": "address"
        },
        {
          "indexed": false,
          "internalType": "uint256",
          "name": "assets",
          "type": "uint256"
        },
        {
          "indexed": false,
          "internalType": "uint256",
          "name": "shares",
          "type": "uint256"
        }
      ],
      "name": "Withdraw",
      "type": "event"
    },
    {
      "inputs": [],
      "name": "ASSET",
      "outputs": [
        {
          "internalType": "contract IERC20",
          "name": "",
          "type": "address"
        }
      ],
      "stateMutability": "view",
      "type": "function"
    },
    {
      "inputs": [],
      "name": "ATOKEN",
      "outputs": [
        {
          "internalType": "contract IAToken",
          "name": "",
          "type": "address"
        }
      ],
      "stateMutability": "view",
      "type": "function"
    },
    {
      "inputs": [],
      "name": "BASE_EXCHANGE_RATE",
      "outputs": [
        {
          "internalType": "uint256",
          "name": "",
          "type": "uint256"
        }
      ],
      "stateMutability": "view",
      "type": "function"
    },
    {
      "inputs": [
        {
          "internalType": "address",
          "name": "owner",
          "type": "address"
        },
        {
          "internalType": "address",
          "name": "spender",
          "type": "address"
        }
      ],
      "name": "allowance",
      "outputs": [
        {
          "internalType": "uint256",
          "name": "",
          "type": "uint256"
        }
      ],
      "stateMutability": "view",
      "type": "function"
    },
    {
      "inputs": [
        {
          "internalType": "address",
          "name": "spender",
          "type": "address"
        },
        {
          "internalType": "uint256",
          "name": "value",
          "type": "uint256"
        }
      ],
      "name": "approve",
      "outputs": [
        {
          "internalType": "bool",
          "name": "",
          "type": "bool"
        }
      ],
      "stateMutability": "nonpayable",
      "type": "function"
    },
    {
      "inputs": [
        {
          "internalType": "address",
          "name": "account",
          "type": "address"
        }
      ],
      "name": "balanceOf",
      "outputs": [
        {
          "internalType": "uint256",
          "name": "",
          "type": "uint256"
        }
      ],
      "stateMutability": "view",
      "type": "function"
    },
    {
      "inputs": [
        {
          "internalType": "uint256",
          "name": "shares",
          "type": "uint256"
        }
      ],
      "name": "convertToAssets",
      "outputs": [
        {
          "internalType": "uint256",
          "name": "",
          "type": "uint256"
        }
      ],
      "stateMutability": "view",
      "type": "function"
    },
    {
      "inputs": [
        {
          "internalType": "uint256",
          "name": "assets",
          "type": "uint256"
        }
      ],
      "name": "convertToShares",
      "outputs": [
        {
          "internalType": "uint256",
          "name": "",
          "type": "uint256"
        }
      ],
      "stateMutability": "view",
      "type": "function"
    },
    {
      "inputs": [],
      "name": "decimals",
      "outputs": [
        {
          "internalType": "uint8",
          "name": "",
          "type": "uint8"
        }
      ],
      "stateMutability": "view",
      "type": "function"
    },
    {
      "inputs": [
        {
          "internalType": "uint256",
          "name": "assets",
          "type": "uint256"
        },
        {
          "internalType": "address",
          "name": "receiver",
          "type": "address"
        }
      ],
      "name": "deposit",
      "outputs": [
        {
          "internalType": "uint256",
          "name": "shares",
          "type": "uint256"
        }
      ],
      "stateMutability": "nonpayable",
      "type": "function"
    },
    {
      "inputs": [
        {
          "internalType": "address",
          "name": "",
          "type": "address"
        }
      ],
      "name": "maxDeposit",
      "outputs": [
        {
          "internalType": "uint256",
          "name": "",
          "type": "uint256"
        }
      ],
      "stateMutability": "view",
      "type": "function"
    },
    {
      "inputs": [
        {
          "internalType": "address",
          "name": "owner",
          "type": "address"
        }
      ],
      "name": "maxWithdraw",
      "outputs": [
        {
          "internalType": "uint256",
          "name": "",
          "type": "uint256"
        }
      ],
      "stateMutability": "view",
      "type": "function"
    },
    {
      "inputs": [],
      "name": "name",
      "outputs": [
        {
          "internalType": "string",
          "name": "",
          "type": "string"
        }
      ],
      "stateMutability": "view",
      "type": "function"
    },
    {
      "inputs": [
        {
          "internalType": "uint256",
          "name": "assets",
          "type": "uint256"
        }
      ],
      "name": "previewDeposit",
      "outputs": [
        {
          "internalType": "uint256",
          "name": "",
          "type": "uint256"
        }
      ],
      "stateMutability": "view",
      "type": "function"
    },
    {
      "inputs": [
        {
          "internalType": "uint256",
          "name": "assets",
          "type": "uint256"
        }
      ],
      "name": "previewWithdraw",
      "outputs": [
        {
          "internalType": "uint256",
          "name": "",
          "type": "uint256"
        }
      ],
      "stateMutability": "view",
      "type": "function"
    },
    {
      "inputs": [
        {
          "internalType": "uint256",
          "name": "shares",
          "type": "uint256"
        },
        {
          "internalType": "address",
          "name": "receiver",
          "type": "address"
        },
        {
          "internalType": "address",
          "name": "owner",
          "type": "address"
        }
      ],
      "name": "redeem",
      "outputs": [
        {
          "internalType": "uint256",
          "name": "assets",
          "type": "uint256"
        }
      ],
      "stateMutability": "nonpayable",
      "type": "function"
    },
    {
      "inputs": [],
      "name": "symbol",
      "outputs": [
        {
          "internalType": "string",
          "name": "",
          "type": "string"
        }
      ],
      "stateMutability": "view",
      "type": "function"
    },
    {
      "inputs": [],
      "name": "totalAssets",
      "outputs": [
        {
          "internalType": "uint256",
          "name": "",
          "type": "uint256"
        }
      ],
      "stateMutability": "view",
      "type": "function"
    },
    {
      "inputs": [],
      "name": "totalSupply",
      "outputs": [
        {
          "internalType": "uint256",
          "name": "",
          "type": "uint256"
        }
      ],
      "stateMutability": "view",
      "type": "function"
    },
    {
      "inputs": [
        {
          "internalType": "address",
          "name": "to",
          "type": "address"
        },
        {
          "internalType": "uint256",
          "name": "value",
          "type": "uint256"
        }
      ],
      "name": "transfer",
      "outputs": [
        {
          "internalType": "bool",
          "name": "",
          "type": "bool"
        }
      ],
      "stateMutability": "nonpayable",
      "type": "function"
    },
    {
      "inputs": [
        {
          "internalType": "address",
          "name": "from",
          "type": "address"
        },
        {
          "internalType": "address",
          "name": "to",
          "type": "address"
        },
        {
          "internalType": "uint256",
          "name": "value",
          "type": "uint256"
        }
      ],
      "name": "transferFrom",
      "outputs": [
        {
          "internalType": "bool",
          "name": "",
          "type": "bool"
        }
      ],
      "stateMutability": "nonpayable",
      "type": "function"
    },
    {
      "inputs": [
        {
          "internalType": "uint256",
          "name": "assets",
          "type": "uint256"
        },
        {
          "internalType": "address",
          "name": "receiver",
          "type": "address"
        },
        {
          "internalType": "address",
          "name": "owner",
          "type": "address"
        }
      ],
      "name": "withdraw",
      "outputs": [
        {
          "internalType": "uint256",
          "name": "shares",
          "type": "uint256"
        }
      ],
      "stateMutability": "nonpayable",
      "type": "function"
    }
  ],
  "transactionHash": "0xcef0472ce21900f566d74a5a1a2a2501c1cc320f711b39e198a573697ac3488f",
  "args": [
    "0x52D800ca262522580CeBAD275395ca6e7598C014",
    "0x4CeDCB57Af02293231BAA9D39354D6BFDFD251e0",
    1000000
  ],
  "numDeployments": 1,
  "solcInputHash": "7089d547ca3c0d6254b8ab46f1594011",
  "bytecode": "0x6101006040523480156200001257600080fd5b50604051620036ee380380620036ee8339818101604052810190620000389190620004a3565b6040518060400160405280600e81526020017f41617665506f6f6c5368617265730000000000000000000000000000000000008152506040518060400160405280600481526020017f41565053000000000000000000000000000000000000000000000000000000008152508160039081620000b591906200076f565b508060049081620000c791906200076f565b5050506000811162000110576040517f08c379a00000000000000000000000000000000000000000000000000000000081526004016200010790620008b7565b60405180910390fd5b8060e081815250508273ffffffffffffffffffffffffffffffffffffffff1660a08173ffffffffffffffffffffffffffffffffffffffff16815250508173ffffffffffffffffffffffffffffffffffffffff1660808173ffffffffffffffffffffffffffffffffffffffff16815250506000620001926200037960201b60201c565b905060008173ffffffffffffffffffffffffffffffffffffffff166335ea6a75866040518263ffffffff1660e01b8152600401620001d19190620008ea565b6101e060405180830381865afa158015620001f0573d6000803e3d6000fd5b505050506040513d601f19601f8201168201806040525081019062000216919062000c0a565b9050600073ffffffffffffffffffffffffffffffffffffffff1681610100015173ffffffffffffffffffffffffffffffffffffffff16036200028f576040517f08c379a0000000000000000000000000000000000000000000000000000000008152600401620002869062000c8d565b60405180910390fd5b80610100015173ffffffffffffffffffffffffffffffffffffffff1660c08173ffffffffffffffffffffffffffffffffffffffff168152505060a05173ffffffffffffffffffffffffffffffffffffffff1663095ea7b3837fffffffffffffffffffffffffffffffffffffffffffffffffffffffffffffffff6040518363ffffffff1660e01b81526004016200032792919062000cc0565b6020604051808303816000875af115801562000347573d6000803e3d6000fd5b505050506040513d601f19601f820116820180604052508101906200036d919062000d2a565b50505050505062000d8e565b600060805173ffffffffffffffffffffffffffffffffffffffff1663026b1d5f6040518163ffffffff1660e01b8152600401602060405180830381865afa158015620003c9573d6000803e3d6000fd5b505050506040513d601f19601f82011682018060405250810190620003ef919062000d5c565b905090565b6000604051905090565b600080fd5b600073ffffffffffffffffffffffffffffffffffffffff82169050919050565b6000620004308262000403565b9050919050565b620004428162000423565b81146200044e57600080fd5b50565b600081519050620004628162000437565b92915050565b6000819050919050565b6200047d8162000468565b81146200048957600080fd5b50565b6000815190506200049d8162000472565b92915050565b600080600060608486031215620004bf57620004be620003fe565b5b6000620004cf8682870162000451565b9350506020620004e28682870162000451565b9250506040620004f5868287016200048c565b9150509250925092565b600081519050919050565b7f4e487b7100000000000000000000000000000000000000000000000000000000600052604160045260246000fd5b7f4e487b7100000000000000000000000000000000000000000000000000000000600052602260045260246000fd5b600060028204905060018216806200058157607f821691505b60208210810362000597576200059662000539565b5b50919050565b60008190508160005260206000209050919050565b60006020601f8301049050919050565b600082821b905092915050565b600060088302620006017fffffffffffffffffffffffffffffffffffffffffffffffffffffffffffffffff82620005c2565b6200060d8683620005c2565b95508019841693508086168417925050509392505050565b6000819050919050565b6000620006506200064a620006448462000468565b62000625565b62000468565b9050919050565b6000819050919050565b6200066c836200062f565b620006846200067b8262000657565b848454620005cf565b825550505050565b600090565b6200069b6200068c565b620006a881848462000661565b505050565b5b81811015620006d057620006c460008262000691565b600181019050620006ae565b5050565b601f8211156200071f57620006e9816200059d565b620006f484620005b2565b8101602085101562000704578190505b6200071c6200071385620005b2565b830182620006ad565b50505b505050565b600082821c905092915050565b6000620007446000198460080262000724565b1980831691505092915050565b60006200075f838362000731565b9150826002028217905092915050565b6200077a82620004ff565b67ffffffffffffffff8111156200079657620007956200050a565b5b620007a2825462000568565b620007af828285620006d4565b600060209050601f831160018114620007e75760008415620007d2578287015190505b620007de858262000751565b8655506200084e565b601f198416620007f7866200059d565b60005b828110156200082157848901518255600182019150602085019450602081019050620007fa565b868310156200084157848901516200083d601f89168262000731565b8355505b6001600288020188555050505b505050505050565b600082825260208201905092915050565b7f496e76616c69642065786368616e676520726174652e00000000000000000000600082015250565b60006200089f60168362000856565b9150620008ac8262000867565b602082019050919050565b60006020820190508181036000830152620008d28162000890565b9050919050565b620008e48162000423565b82525050565b6000602082019050620009016000830184620008d9565b92915050565b600080fd5b6000601f19601f8301169050919050565b62000928826200090c565b810181811067ffffffffffffffff821117156200094a57620009496200050a565b5b80604052505050565b60006200095f620003f4565b90506200096d82826200091d565b919050565b6000602082840312156200098b576200098a62000907565b5b62000997602062000953565b90506000620009a9848285016200048c565b60008301525092915050565b60006fffffffffffffffffffffffffffffffff82169050919050565b620009dc81620009b5565b8114620009e857600080fd5b50565b600081519050620009fc81620009d1565b92915050565b600064ffffffffff82169050919050565b62000a1e8162000a02565b811462000a2a57600080fd5b50565b60008151905062000a3e8162000a13565b92915050565b600061ffff82169050919050565b62000a5d8162000a44565b811462000a6957600080fd5b50565b60008151905062000a7d8162000a52565b92915050565b60006101e0828403121562000a9d5762000a9c62000907565b5b62000aaa6101e062000953565b9050600062000abc8482850162000972565b600083015250602062000ad284828501620009eb565b602083015250604062000ae884828501620009eb565b604083015250606062000afe84828501620009eb565b606083015250608062000b1484828501620009eb565b60808301525060a062000b2a84828501620009eb565b60a08301525060c062000b408482850162000a2d565b60c08301525060e062000b568482850162000a6c565b60e08301525061010062000b6d8482850162000451565b6101008301525061012062000b858482850162000451565b6101208301525061014062000b9d8482850162000451565b6101408301525061016062000bb58482850162000451565b6101608301525061018062000bcd84828501620009eb565b610180830152506101a062000be584828501620009eb565b6101a0830152506101c062000bfd84828501620009eb565b6101c08301525092915050565b60006101e0828403121562000c245762000c23620003fe565b5b600062000c348482850162000a83565b91505092915050565b7f4173736574206e6f7420636f6d70617469626c65207769746820416176652e00600082015250565b600062000c75601f8362000856565b915062000c828262000c3d565b602082019050919050565b6000602082019050818103600083015262000ca88162000c66565b9050919050565b62000cba8162000468565b82525050565b600060408201905062000cd76000830185620008d9565b62000ce6602083018462000caf565b9392505050565b60008115159050919050565b62000d048162000ced565b811462000d1057600080fd5b50565b60008151905062000d248162000cf9565b92915050565b60006020828403121562000d435762000d42620003fe565b5b600062000d538482850162000d13565b91505092915050565b60006020828403121562000d755762000d74620003fe565b5b600062000d858482850162000451565b91505092915050565b60805160a05160c05160e0516128d262000e1c600039600081816105b00152818161063e015281816106c60152610c1201526000818161070e01528181610d2a015281816111c001526115b00152600081816106ea015281816107820152818161084601528181610ab701528181611020015281816114800152611574015260006112c201526128d26000f3fe608060405234801561001057600080fd5b50600436106101425760003560e01c806351c0e061116100b8578063b460af941161007c578063b460af94146103b7578063ba087652146103e7578063c6e6f59214610417578063ce96cb7714610447578063dd62ed3e14610477578063ef8b30f7146104a757610142565b806351c0e061146102eb5780636e553f651461030957806370a082311461033957806395d89b4114610369578063a9059cbb1461038757610142565b806318160ddd1161010a57806318160ddd1461021357806323b872dd14610231578063313ce56714610261578063402d267d1461027f578063421a7624146102af5780634800d97f146102cd57610142565b806301e1d1141461014757806306fdde031461016557806307a2d13a14610183578063095ea7b3146101b35780630a28a477146101e3575b600080fd5b61014f6104d7565b60405161015c9190611aad565b60405180910390f35b61016d6104e6565b60405161017a9190611b58565b60405180910390f35b61019d60048036038101906101989190611bb5565b610578565b6040516101aa9190611aad565b60405180910390f35b6101cd60048036038101906101c89190611c40565b6105e3565b6040516101da9190611c9b565b60405180910390f35b6101fd60048036038101906101f89190611bb5565b610606565b60405161020a9190611aad565b60405180910390f35b61021b610671565b6040516102289190611aad565b60405180910390f35b61024b60048036038101906102469190611cb6565b61067b565b6040516102589190611c9b565b60405180910390f35b6102696106aa565b6040516102769190611d25565b60405180910390f35b61029960048036038101906102949190611d40565b6106b3565b6040516102a69190611aad565b60405180910390f35b6102b76106c4565b6040516102c49190611aad565b60405180910390f35b6102d56106e8565b6040516102e29190611dcc565b60405180910390f35b6102f361070c565b6040516103009190611e08565b60405180910390f35b610323600480360381019061031e9190611e23565b610730565b6040516103309190611aad565b60405180910390f35b610353600480360381019061034e9190611d40565b610931565b6040516103609190611aad565b60405180910390f35b610371610979565b60405161037e9190611b58565b60405180910390f35b6103a1600480360381019061039c9190611c40565b610a0b565b6040516103ae9190611c9b565b60405180910390f35b6103d160048036038101906103cc9190611e63565b610a2e565b6040516103de9190611aad565b60405180910390f35b61040160048036038101906103fc9190611e63565b610bd1565b60405161040e9190611aad565b60405180910390f35b610431600480360381019061042c9190611bb5565b610bda565b60405161043e9190611aad565b60405180910390f35b610461600480360381019061045c9190611d40565b610c45565b60405161046e9190611aad565b60405180910390f35b610491600480360381019061048c9190611eb6565b610c8d565b60405161049e9190611aad565b60405180910390f35b6104c160048036038101906104bc9190611bb5565b610d14565b6040516104ce9190611aad565b60405180910390f35b60006104e1610d26565b905090565b6060600380546104f590611f25565b80601f016020809104026020016040519081016040528092919081815260200182805461052190611f25565b801561056e5780601f106105435761010080835404028352916020019161056e565b820191906000526020600020905b81548152906001019060200180831161055157829003601f168201915b5050505050905090565b600080610583610671565b9050600081146105ae576105a96105986104d7565b8285610dc79092919063ffffffff16565b6105db565b7f0000000000000000000000000000000000000000000000000000000000000000836105da9190611fb4565b5b915050919050565b6000806105ee610e0a565b90506105fb818585610e12565b600191505092915050565b600080610611610671565b90506000811461063c57610637816106276104d7565b85610e249092919063ffffffff16565b610669565b7f0000000000000000000000000000000000000000000000000000000000000000836106689190611fe5565b5b915050919050565b6000600254905090565b600080610686610e0a565b9050610693858285610e70565b61069e858585610f04565b60019150509392505050565b60006012905090565b60006106bd610ff8565b9050919050565b7f000000000000000000000000000000000000000000000000000000000000000081565b7f000000000000000000000000000000000000000000000000000000000000000081565b7f000000000000000000000000000000000000000000000000000000000000000081565b600061073b83610d14565b905060008103610780576040517f08c379a000000000000000000000000000000000000000000000000000000000815260040161077790612073565b60405180910390fd5b7f000000000000000000000000000000000000000000000000000000000000000073ffffffffffffffffffffffffffffffffffffffff166323b872dd3330866040518463ffffffff1660e01b81526004016107dd939291906120a2565b6020604051808303816000875af11580156107fc573d6000803e3d6000fd5b505050506040513d601f19601f820116820180604052508101906108209190612105565b506108296112be565b73ffffffffffffffffffffffffffffffffffffffff1663617ba0377f0000000000000000000000000000000000000000000000000000000000000000853060006040518563ffffffff1660e01b8152600401610888949392919061217b565b600060405180830381600087803b1580156108a257600080fd5b505af11580156108b6573d6000803e3d6000fd5b505050506108c48282611354565b8173ffffffffffffffffffffffffffffffffffffffff163373ffffffffffffffffffffffffffffffffffffffff167fdcbc1c05240f31ff3ad067ef1ee35ce4997762752e3a095284754544f4c709d785846040516109239291906121c0565b60405180910390a392915050565b60008060008373ffffffffffffffffffffffffffffffffffffffff1673ffffffffffffffffffffffffffffffffffffffff168152602001908152602001600020549050919050565b60606004805461098890611f25565b80601f01602080910402602001604051908101604052809291908181526020018280546109b490611f25565b8015610a015780601f106109d657610100808354040283529160200191610a01565b820191906000526020600020905b8154815290600101906020018083116109e457829003601f168201915b5050505050905090565b600080610a16610e0a565b9050610a23818585610f04565b600191505092915050565b6000610a3984610606565b905080610a4533610931565b1015610a86576040517f08c379a0000000000000000000000000000000000000000000000000000000008152600401610a7d9061225b565b60405180910390fd5b610a9082826113d6565b6000610a9a6112be565b73ffffffffffffffffffffffffffffffffffffffff166369328dec7f000000000000000000000000000000000000000000000000000000000000000087876040518463ffffffff1660e01b8152600401610af69392919061227b565b6020604051808303816000875af1158015610b15573d6000803e3d6000fd5b505050506040513d601f19601f82011682018060405250810190610b3991906122c7565b9050848114610b4b57610b4a6122f4565b5b8273ffffffffffffffffffffffffffffffffffffffff168473ffffffffffffffffffffffffffffffffffffffff163373ffffffffffffffffffffffffffffffffffffffff167ffbde797d201c681b91056529119e0b02407c7bb96a4a2c75c01fc9667232c8db8886604051610bc19291906121c0565b60405180910390a4509392505050565b60009392505050565b600080610be5610671565b905060008114610c1057610c0b81610bfb6104d7565b85610dc79092919063ffffffff16565b610c3d565b7f000000000000000000000000000000000000000000000000000000000000000083610c3c9190611fe5565b5b915050919050565b600080610c50611458565b905060008114610c8257610c7d610c6e610c6985610931565b610578565b8261163490919063ffffffff16565b610c85565b60005b915050919050565b6000600160008473ffffffffffffffffffffffffffffffffffffffff1673ffffffffffffffffffffffffffffffffffffffff16815260200190815260200160002060008373ffffffffffffffffffffffffffffffffffffffff1673ffffffffffffffffffffffffffffffffffffffff16815260200190815260200160002054905092915050565b6000610d1f82610bda565b9050919050565b60007f000000000000000000000000000000000000000000000000000000000000000073ffffffffffffffffffffffffffffffffffffffff166370a08231306040518263ffffffff1660e01b8152600401610d819190612323565b602060405180830381865afa158015610d9e573d6000803e3d6000fd5b505050506040513d601f19601f82011682018060405250810190610dc291906122c7565b905090565b6000827fffffffffffffffffffffffffffffffffffffffffffffffffffffffffffffffff0484118302158202610dfc57600080fd5b818385020490509392505050565b600033905090565b610e1f838383600161164d565b505050565b6000827fffffffffffffffffffffffffffffffffffffffffffffffffffffffffffffffff0484118302158202610e5957600080fd5b818385020460008385870206110190509392505050565b6000610e7c8484610c8d565b90507fffffffffffffffffffffffffffffffffffffffffffffffffffffffffffffffff8114610efe5781811015610eee578281836040517ffb8f41b2000000000000000000000000000000000000000000000000000000008152600401610ee59392919061233e565b60405180910390fd5b610efd8484848403600061164d565b5b50505050565b600073ffffffffffffffffffffffffffffffffffffffff168373ffffffffffffffffffffffffffffffffffffffff1603610f765760006040517f96c6fd1e000000000000000000000000000000000000000000000000000000008152600401610f6d9190612323565b60405180910390fd5b600073ffffffffffffffffffffffffffffffffffffffff168273ffffffffffffffffffffffffffffffffffffffff1603610fe85760006040517fec442f05000000000000000000000000000000000000000000000000000000008152600401610fdf9190612323565b60405180910390fd5b610ff3838383611824565b505050565b6000806110036112be565b73ffffffffffffffffffffffffffffffffffffffff166335ea6a757f00000000000000000000000000000000000000000000000000000000000000006040518263ffffffff1660e01b815260040161105b9190612323565b6101e060405180830381865afa158015611079573d6000803e3d6000fd5b505050506040513d601f19601f8201168201806040525081019061109d919061265b565b905060008160000151600001519050600060747fffffffffffffffffffffffffff000000000fffffffffffffffffffffffffffff198316901c905060007ffffffffffffffffffffffffffffffffffffffffffffffffffeffffffffffffff198316148061112e575060007ffffffffffffffffffffffffffffffffffffffffffffffffffdffffffffffffff19831614155b8061115d575060007fffffffffffffffffffffffffffffffffffffffffffffffffefffffffffffffff19831614155b1561116e57600093505050506112bb565b600081036111a1577fffffffffffffffffffffffffffffffffffffffffffffffffffffffffffffffff93505050506112bb565b60006112738461018001516fffffffffffffffffffffffffffffffff167f000000000000000000000000000000000000000000000000000000000000000073ffffffffffffffffffffffffffffffffffffffff1663b1bf962d6040518163ffffffff1660e01b8152600401602060405180830381865afa158015611229573d6000803e3d6000fd5b505050506040513d601f19601f8201168201806040525081019061124d91906122c7565b6112579190612689565b85602001516fffffffffffffffffffffffffffffffff16611a49565b9050600061127f6106aa565b600a61128b91906127f0565b836112969190611fe5565b90508181116112a65760006112b3565b81816112b2919061283b565b5b955050505050505b90565b60007f000000000000000000000000000000000000000000000000000000000000000073ffffffffffffffffffffffffffffffffffffffff1663026b1d5f6040518163ffffffff1660e01b8152600401602060405180830381865afa15801561132b573d6000803e3d6000fd5b505050506040513d601f19601f8201168201806040525081019061134f919061286f565b905090565b600073ffffffffffffffffffffffffffffffffffffffff168273ffffffffffffffffffffffffffffffffffffffff16036113c65760006040517fec442f050000000000000000000000000000000000000000000000000000000081526004016113bd9190612323565b60405180910390fd5b6113d260008383611824565b5050565b600073ffffffffffffffffffffffffffffffffffffffff168273ffffffffffffffffffffffffffffffffffffffff16036114485760006040517f96c6fd1e00000000000000000000000000000000000000000000000000000000815260040161143f9190612323565b60405180910390fd5b61145482600083611824565b5050565b6000806114636112be565b73ffffffffffffffffffffffffffffffffffffffff166335ea6a757f00000000000000000000000000000000000000000000000000000000000000006040518263ffffffff1660e01b81526004016114bb9190612323565b6101e060405180830381865afa1580156114d9573d6000803e3d6000fd5b505050506040513d601f19601f820116820180604052508101906114fd919061265b565b90506000816000015160000151905060007ffffffffffffffffffffffffffffffffffffffffffffffffffeffffffffffffff1982161480611562575060007fffffffffffffffffffffffffffffffffffffffffffffffffefffffffffffffff19821614155b1561157257600092505050611631565b7f000000000000000000000000000000000000000000000000000000000000000073ffffffffffffffffffffffffffffffffffffffff166370a082317f00000000000000000000000000000000000000000000000000000000000000006040518263ffffffff1660e01b81526004016115eb9190612323565b602060405180830381865afa158015611608573d6000803e3d6000fd5b505050506040513d601f19601f8201168201806040525081019061162c91906122c7565b925050505b90565b60008183106116435781611645565b825b905092915050565b600073ffffffffffffffffffffffffffffffffffffffff168473ffffffffffffffffffffffffffffffffffffffff16036116bf5760006040517fe602df050000000000000000000000000000000000000000000000000000000081526004016116b69190612323565b60405180910390fd5b600073ffffffffffffffffffffffffffffffffffffffff168373ffffffffffffffffffffffffffffffffffffffff16036117315760006040517f94280d620000000000000000000000000000000000000000000000000000000081526004016117289190612323565b60405180910390fd5b81600160008673ffffffffffffffffffffffffffffffffffffffff1673ffffffffffffffffffffffffffffffffffffffff16815260200190815260200160002060008573ffffffffffffffffffffffffffffffffffffffff1673ffffffffffffffffffffffffffffffffffffffff16815260200190815260200160002081905550801561181e578273ffffffffffffffffffffffffffffffffffffffff168473ffffffffffffffffffffffffffffffffffffffff167f8c5be1e5ebec7d5bd14f71427d1e84f3dd0314c0f7b2291e5b200ac8c7c3b925846040516118159190611aad565b60405180910390a35b50505050565b600073ffffffffffffffffffffffffffffffffffffffff168373ffffffffffffffffffffffffffffffffffffffff160361187657806002600082825461186a9190612689565b92505081905550611949565b60008060008573ffffffffffffffffffffffffffffffffffffffff1673ffffffffffffffffffffffffffffffffffffffff16815260200190815260200160002054905081811015611902578381836040517fe450d38c0000000000000000000000000000000000000000000000000000000081526004016118f99392919061233e565b60405180910390fd5b8181036000808673ffffffffffffffffffffffffffffffffffffffff1673ffffffffffffffffffffffffffffffffffffffff16815260200190815260200160002081905550505b600073ffffffffffffffffffffffffffffffffffffffff168273ffffffffffffffffffffffffffffffffffffffff160361199257806002600082825403925050819055506119df565b806000808473ffffffffffffffffffffffffffffffffffffffff1673ffffffffffffffffffffffffffffffffffffffff168152602001908152602001600020600082825401925050819055505b8173ffffffffffffffffffffffffffffffffffffffff168373ffffffffffffffffffffffffffffffffffffffff167fddf252ad1be2c89b69c2b068fc378daa952ba7f163c4a11628f55a4df523b3ef83604051611a3c9190611aad565b60405180910390a3505050565b6000816b019d971e4fe8401e740000006000190304831115821517611a6d57600080fd5b6b033b2e3c9fd0803ce80000006b019d971e4fe8401e740000008385020104905092915050565b6000819050919050565b611aa781611a94565b82525050565b6000602082019050611ac26000830184611a9e565b92915050565b600081519050919050565b600082825260208201905092915050565b60005b83811015611b02578082015181840152602081019050611ae7565b60008484015250505050565b6000601f19601f8301169050919050565b6000611b2a82611ac8565b611b348185611ad3565b9350611b44818560208601611ae4565b611b4d81611b0e565b840191505092915050565b60006020820190508181036000830152611b728184611b1f565b905092915050565b6000604051905090565b600080fd5b611b9281611a94565b8114611b9d57600080fd5b50565b600081359050611baf81611b89565b92915050565b600060208284031215611bcb57611bca611b84565b5b6000611bd984828501611ba0565b91505092915050565b600073ffffffffffffffffffffffffffffffffffffffff82169050919050565b6000611c0d82611be2565b9050919050565b611c1d81611c02565b8114611c2857600080fd5b50565b600081359050611c3a81611c14565b92915050565b60008060408385031215611c5757611c56611b84565b5b6000611c6585828601611c2b565b9250506020611c7685828601611ba0565b9150509250929050565b60008115159050919050565b611c9581611c80565b82525050565b6000602082019050611cb06000830184611c8c565b92915050565b600080600060608486031215611ccf57611cce611b84565b5b6000611cdd86828701611c2b565b9350506020611cee86828701611c2b565b9250506040611cff86828701611ba0565b9150509250925092565b600060ff82169050919050565b611d1f81611d09565b82525050565b6000602082019050611d3a6000830184611d16565b92915050565b600060208284031215611d5657611d55611b84565b5b6000611d6484828501611c2b565b91505092915050565b6000819050919050565b6000611d92611d8d611d8884611be2565b611d6d565b611be2565b9050919050565b6000611da482611d77565b9050919050565b6000611db682611d99565b9050919050565b611dc681611dab565b82525050565b6000602082019050611de16000830184611dbd565b92915050565b6000611df282611d99565b9050919050565b611e0281611de7565b82525050565b6000602082019050611e1d6000830184611df9565b92915050565b60008060408385031215611e3a57611e39611b84565b5b6000611e4885828601611ba0565b9250506020611e5985828601611c2b565b9150509250929050565b600080600060608486031215611e7c57611e7b611b84565b5b6000611e8a86828701611ba0565b9350506020611e9b86828701611c2b565b9250506040611eac86828701611c2b565b9150509250925092565b60008060408385031215611ecd57611ecc611b84565b5b6000611edb85828601611c2b565b9250506020611eec85828601611c2b565b9150509250929050565b7f4e487b7100000000000000000000000000000000000000000000000000000000600052602260045260246000fd5b60006002820490506001821680611f3d57607f821691505b602082108103611f5057611f4f611ef6565b5b50919050565b7f4e487b7100000000000000000000000000000000000000000000000000000000600052601260045260246000fd5b7f4e487b7100000000000000000000000000000000000000000000000000000000600052601160045260246000fd5b6000611fbf82611a94565b9150611fca83611a94565b925082611fda57611fd9611f56565b5b828204905092915050565b6000611ff082611a94565b9150611ffb83611a94565b925082820261200981611a94565b915082820484148315176120205761201f611f85565b5b5092915050565b7f5a45524f205348415245532e2041646a75737420616d6f756e742e0000000000600082015250565b600061205d601b83611ad3565b915061206882612027565b602082019050919050565b6000602082019050818103600083015261208c81612050565b9050919050565b61209c81611c02565b82525050565b60006060820190506120b76000830186612093565b6120c46020830185612093565b6120d16040830184611a9e565b949350505050565b6120e281611c80565b81146120ed57600080fd5b50565b6000815190506120ff816120d9565b92915050565b60006020828403121561211b5761211a611b84565b5b6000612129848285016120f0565b91505092915050565b6000819050919050565b600061ffff82169050919050565b600061216561216061215b84612132565b611d6d565b61213c565b9050919050565b6121758161214a565b82525050565b60006080820190506121906000830187612093565b61219d6020830186611a9e565b6121aa6040830185612093565b6121b7606083018461216c565b95945050505050565b60006040820190506121d56000830185611a9e565b6121e26020830184611a9e565b9392505050565b7f63616c6c657220646f6573206e6f74206861766520656e6f756768207368617260008201527f657320746f20636f766572207769746864726177616c00000000000000000000602082015250565b6000612245603683611ad3565b9150612250826121e9565b604082019050919050565b6000602082019050818103600083015261227481612238565b9050919050565b60006060820190506122906000830186612093565b61229d6020830185611a9e565b6122aa6040830184612093565b949350505050565b6000815190506122c181611b89565b92915050565b6000602082840312156122dd576122dc611b84565b5b60006122eb848285016122b2565b91505092915050565b7f4e487b7100000000000000000000000000000000000000000000000000000000600052600160045260246000fd5b60006020820190506123386000830184612093565b92915050565b60006060820190506123536000830186612093565b6123606020830185611a9e565b61236d6040830184611a9e565b949350505050565b600080fd5b7f4e487b7100000000000000000000000000000000000000000000000000000000600052604160045260246000fd5b6123b282611b0e565b810181811067ffffffffffffffff821117156123d1576123d061237a565b5b80604052505050565b60006123e4611b7a565b90506123f082826123a9565b919050565b60006020828403121561240b5761240a612375565b5b61241560206123da565b90506000612425848285016122b2565b60008301525092915050565b60006fffffffffffffffffffffffffffffffff82169050919050565b61245681612431565b811461246157600080fd5b50565b6000815190506124738161244d565b92915050565b600064ffffffffff82169050919050565b61249381612479565b811461249e57600080fd5b50565b6000815190506124b08161248a565b92915050565b6124bf8161213c565b81146124ca57600080fd5b50565b6000815190506124dc816124b6565b92915050565b6000815190506124f181611c14565b92915050565b60006101e0828403121561250e5761250d612375565b5b6125196101e06123da565b90506000612529848285016123f5565b600083015250602061253d84828501612464565b602083015250604061255184828501612464565b604083015250606061256584828501612464565b606083015250608061257984828501612464565b60808301525060a061258d84828501612464565b60a08301525060c06125a1848285016124a1565b60c08301525060e06125b5848285016124cd565b60e0830152506101006125ca848285016124e2565b610100830152506101206125e0848285016124e2565b610120830152506101406125f6848285016124e2565b6101408301525061016061260c848285016124e2565b6101608301525061018061262284828501612464565b610180830152506101a061263884828501612464565b6101a0830152506101c061264e84828501612464565b6101c08301525092915050565b60006101e0828403121561267257612671611b84565b5b6000612680848285016124f7565b91505092915050565b600061269482611a94565b915061269f83611a94565b92508282019050808211156126b7576126b6611f85565b5b92915050565b60008160011c9050919050565b6000808291508390505b6001851115612714578086048111156126f0576126ef611f85565b5b60018516156126ff5780820291505b808102905061270d856126bd565b94506126d4565b94509492505050565b60008261272d57600190506127e9565b8161273b57600090506127e9565b8160018114612751576002811461275b5761278a565b60019150506127e9565b60ff84111561276d5761276c611f85565b5b8360020a91508482111561278457612783611f85565b5b506127e9565b5060208310610133831016604e8410600b84101617156127bf5782820a9050838111156127ba576127b9611f85565b5b6127e9565b6127cc84848460016126ca565b925090508184048111156127e3576127e2611f85565b5b81810290505b9392505050565b60006127fb82611a94565b915061280683611d09565b92506128337fffffffffffffffffffffffffffffffffffffffffffffffffffffffffffffffff848461271d565b905092915050565b600061284682611a94565b915061285183611a94565b925082820390508181111561286957612868611f85565b5b92915050565b60006020828403121561288557612884611b84565b5b6000612893848285016124e2565b9150509291505056fea2646970667358221220298757cdaaa20b8dd00be506ef1dc2ef69f236e65635da2a3ef989d0e1a8163e64736f6c63430008140033",
  "devdoc": {
    "errors": {
      "ERC20InsufficientAllowance(address,uint256,uint256)": [
        {
          "details": "Indicates a failure with the `spender`s `allowance`. Used in transfers.",
          "params": {
            "allowance": "Amount of tokens a `spender` is allowed to operate with.",
            "needed": "Minimum amount required to perform a transfer.",
            "spender": "Address that may be allowed to operate on tokens without being their owner."
          }
        }
      ],
      "ERC20InsufficientBalance(address,uint256,uint256)": [
        {
          "details": "Indicates an error related to the current `balance` of a `sender`. Used in transfers.",
          "params": {
            "balance": "Current balance for the interacting account.",
            "needed": "Minimum amount required to perform a transfer.",
            "sender": "Address whose tokens are being transferred."
          }
        }
      ],
      "ERC20InvalidApprover(address)": [
        {
          "details": "Indicates a failure with the `approver` of a token to be approved. Used in approvals.",
          "params": {
            "approver": "Address initiating an approval operation."
          }
        }
      ],
      "ERC20InvalidReceiver(address)": [
        {
          "details": "Indicates a failure with the token `receiver`. Used in transfers.",
          "params": {
            "receiver": "Address to which tokens are being transferred."
          }
        }
      ],
      "ERC20InvalidSender(address)": [
        {
          "details": "Indicates a failure with the token `sender`. Used in transfers.",
          "params": {
            "sender": "Address whose tokens are being transferred."
          }
        }
      ],
      "ERC20InvalidSpender(address)": [
        {
          "details": "Indicates a failure with the `spender` to be approved. Used in approvals.",
          "params": {
            "spender": "Address that may be allowed to operate on tokens without being their owner."
          }
        }
      ]
    },
    "events": {
      "Approval(address,address,uint256)": {
        "details": "Emitted when the allowance of a `spender` for an `owner` is set by a call to {approve}. `value` is the new allowance."
      },
      "Transfer(address,address,uint256)": {
        "details": "Emitted when `value` tokens are moved from one account (`from`) to another (`to`). Note that `value` may be zero."
      }
    },
    "kind": "dev",
    "methods": {
      "allowance(address,address)": {
        "details": "See {IERC20-allowance}."
      },
      "approve(address,uint256)": {
        "details": "See {IERC20-approve}. NOTE: If `value` is the maximum `uint256`, the allowance is not updated on `transferFrom`. This is semantically equivalent to an infinite approval. Requirements: - `spender` cannot be the zero address."
      },
      "balanceOf(address)": {
        "details": "See {IERC20-balanceOf}."
      },
      "decimals()": {
        "details": "Returns the number of decimals used to get its user representation. For example, if `decimals` equals `2`, a balance of `505` tokens should be displayed to a user as `5.05` (`505 / 10 ** 2`). Tokens usually opt for a value of 18, imitating the relationship between Ether and Wei. This is the default value returned by this function, unless it's overridden. NOTE: This information is only used for _display_ purposes: it in no way affects any of the arithmetic of the contract, including {IERC20-balanceOf} and {IERC20-transfer}."
      },
      "name()": {
        "details": "Returns the name of the token."
      },
      "symbol()": {
        "details": "Returns the symbol of the token, usually a shorter version of the name."
      },
      "totalSupply()": {
        "details": "See {IERC20-totalSupply}."
      },
      "transfer(address,uint256)": {
        "details": "See {IERC20-transfer}. Requirements: - `to` cannot be the zero address. - the caller must have a balance of at least `value`."
      },
      "transferFrom(address,address,uint256)": {
        "details": "See {IERC20-transferFrom}. Emits an {Approval} event indicating the updated allowance. This is not required by the EIP. See the note at the beginning of {ERC20}. NOTE: Does not update the allowance if the current allowance is the maximum `uint256`. Requirements: - `from` and `to` cannot be the zero address. - `from` must have a balance of at least `value`. - the caller must have allowance for ``from``'s tokens of at least `value`."
      }
    },
    "version": 1
  },
  "userdoc": {
    "kind": "user",
    "methods": {
      "totalAssets()": {
        "notice": "GETTERS "
      }
    },
    "version": 1
  },
  "storageLayout": {
    "storage": [
      {
        "astId": 159,
        "contract": "contracts/aave/AaveAPI.sol:AaveAPI",
        "label": "_balances",
        "offset": 0,
        "slot": "0",
        "type": "t_mapping(t_address,t_uint256)"
      },
      {
        "astId": 165,
        "contract": "contracts/aave/AaveAPI.sol:AaveAPI",
        "label": "_allowances",
        "offset": 0,
        "slot": "1",
        "type": "t_mapping(t_address,t_mapping(t_address,t_uint256))"
      },
      {
        "astId": 167,
        "contract": "contracts/aave/AaveAPI.sol:AaveAPI",
        "label": "_totalSupply",
        "offset": 0,
        "slot": "2",
        "type": "t_uint256"
      },
      {
        "astId": 169,
        "contract": "contracts/aave/AaveAPI.sol:AaveAPI",
        "label": "_name",
        "offset": 0,
        "slot": "3",
        "type": "t_string_storage"
      },
      {
        "astId": 171,
        "contract": "contracts/aave/AaveAPI.sol:AaveAPI",
        "label": "_symbol",
        "offset": 0,
        "slot": "4",
        "type": "t_string_storage"
      }
    ],
    "types": {
      "t_address": {
        "encoding": "inplace",
        "label": "address",
        "numberOfBytes": "20"
      },
      "t_mapping(t_address,t_mapping(t_address,t_uint256))": {
        "encoding": "mapping",
        "key": "t_address",
        "label": "mapping(address => mapping(address => uint256))",
        "numberOfBytes": "32",
        "value": "t_mapping(t_address,t_uint256)"
      },
      "t_mapping(t_address,t_uint256)": {
        "encoding": "mapping",
        "key": "t_address",
        "label": "mapping(address => uint256)",
        "numberOfBytes": "32",
        "value": "t_uint256"
      },
      "t_string_storage": {
        "encoding": "bytes",
        "label": "string",
        "numberOfBytes": "32"
      },
      "t_uint256": {
        "encoding": "inplace",
        "label": "uint256",
        "numberOfBytes": "32"
      }
    }
  }
}