{
  "address": "0x4BCd0343d6F13b3BFb24AeE152c29B38B0aA0a03",
  "abi": [
    {
      "anonymous": false,
      "inputs": [
        {
          "indexed": true,
          "internalType": "address",
          "name": "owner",
          "type": "address"
        },
        {
          "indexed": true,
          "internalType": "address",
          "name": "asset",
          "type": "address"
        },
        {
          "indexed": true,
          "internalType": "address",
          "name": "poolAddress",
          "type": "address"
        },
        {
          "indexed": false,
          "internalType": "address",
          "name": "resultController",
          "type": "address"
        },
        {
          "indexed": false,
          "internalType": "address",
          "name": "vaultApi",
          "type": "address"
        }
      ],
      "name": "PoolCreated",
      "type": "event"
    },
    {
      "inputs": [
        {
          "internalType": "address",
          "name": "asset",
          "type": "address"
        },
        {
          "internalType": "address",
          "name": "resultController",
          "type": "address"
        },
        {
          "internalType": "address",
          "name": "vaultAPI",
          "type": "address"
        }
      ],
      "name": "createPool",
      "outputs": [],
      "stateMutability": "nonpayable",
      "type": "function"
    }
  ],
  "transactionHash": "0x0bc72500257fb028c86c4fb7b768d821ccb7a494e080bcb04d23d2aefe4704e8",
  "args": [],
  "numDeployments": 3,
  "solcInputHash": "1700e2f12db508120f365b258734cf64",
  "bytecode": "0x608060405234801561001057600080fd5b50612a62806100206000396000f3fe608060405234801561001057600080fd5b506004361061002b5760003560e01c8063236aea2e14610030575b600080fd5b61004a6004803603810190610045919061017c565b61004c565b005b600083838360405161005d9061010c565b610069939291906101de565b604051809103906000f080158015610085573d6000803e3d6000fd5b5090508073ffffffffffffffffffffffffffffffffffffffff168473ffffffffffffffffffffffffffffffffffffffff163373ffffffffffffffffffffffffffffffffffffffff167f583aa3202641e70abf6c4e526dd0bf713aa272b67f557ed30f2e40a37d985a8e86866040516100fe929190610215565b60405180910390a450505050565b6127ee8061023f83390190565b600080fd5b600073ffffffffffffffffffffffffffffffffffffffff82169050919050565b60006101498261011e565b9050919050565b6101598161013e565b811461016457600080fd5b50565b60008135905061017681610150565b92915050565b60008060006060848603121561019557610194610119565b5b60006101a386828701610167565b93505060206101b486828701610167565b92505060406101c586828701610167565b9150509250925092565b6101d88161013e565b82525050565b60006060820190506101f360008301866101cf565b61020060208301856101cf565b61020d60408301846101cf565b949350505050565b600060408201905061022a60008301856101cf565b61023760208301846101cf565b939250505056fe60e06040523480156200001157600080fd5b50604051620027ee380380620027ee8339818101604052810190620000379190620001ec565b8273ffffffffffffffffffffffffffffffffffffffff1660808173ffffffffffffffffffffffffffffffffffffffff16815250508173ffffffffffffffffffffffffffffffffffffffff1660a08173ffffffffffffffffffffffffffffffffffffffff16815250508073ffffffffffffffffffffffffffffffffffffffff1660c08173ffffffffffffffffffffffffffffffffffffffff168152505060805173ffffffffffffffffffffffffffffffffffffffff1663095ea7b3827fffffffffffffffffffffffffffffffffffffffffffffffffffffffffffffffff6040518363ffffffff1660e01b81526004016200013292919062000274565b6020604051808303816000875af115801562000152573d6000803e3d6000fd5b505050506040513d601f19601f82011682018060405250810190620001789190620002de565b5050505062000310565b600080fd5b600073ffffffffffffffffffffffffffffffffffffffff82169050919050565b6000620001b48262000187565b9050919050565b620001c681620001a7565b8114620001d257600080fd5b50565b600081519050620001e681620001bb565b92915050565b60008060006060848603121562000208576200020762000182565b5b60006200021886828701620001d5565b93505060206200022b86828701620001d5565b92505060406200023e86828701620001d5565b9150509250925092565b6200025381620001a7565b82525050565b6000819050919050565b6200026e8162000259565b82525050565b60006040820190506200028b600083018562000248565b6200029a602083018462000263565b9392505050565b60008115159050919050565b620002b881620002a1565b8114620002c457600080fd5b50565b600081519050620002d881620002ad565b92915050565b600060208284031215620002f757620002f662000182565b5b60006200030784828501620002c7565b91505092915050565b60805160a05160c051612445620003a9600039600081816108170152818161099301528181610a3a01528181610b4701528181610be601528181610c7001528181611228015281816114cf01526117e30152600081816103c80152818161075901528181610c2f01528181610d87015261102b0152600081816105f201528181610f4e0152818161134f015261173501526124456000f3fe608060405234801561001057600080fd5b50600436106101215760003560e01c8063767123ec116100ad57806392f3eb381161007157806392f3eb381461030c57806397b3fcaa1461033c578063b6cce5e21461035a578063bf9befb114610376578063c180e49e1461039457610121565b8063767123ec146102545780637c262871146102725780637f3db09214610290578063863ed73d146102c057806391342028146102dc57610121565b80633d972839116100f45780633d9728391461019c578063574f0ac8146101b85780636083e59a146101e857806363bc19631461020657806369b9f9d11461022457610121565b80631053eaa3146101265780631e3339dd14610144578063313b9b7b1461016257806338d52e0f1461017e575b600080fd5b61012e6103c4565b60405161013b9190611a11565b60405180910390f35b61014c61045a565b6040516101599190611a45565b60405180910390f35b61017c60048036038101906101779190611acb565b610460565b005b6101866105f0565b6040516101939190611b8a565b60405180910390f35b6101b660048036038101906101b19190611ba5565b610614565b005b6101d260048036038101906101cd9190611bd2565b61097f565b6040516101df9190611a45565b60405180910390f35b6101f0610b43565b6040516101fd9190611a45565b60405180910390f35b61020e610be4565b60405161021b9190611c46565b60405180910390f35b61023e60048036038101906102399190611ba5565b610c08565b60405161024b9190611a45565b60405180910390f35b61025c610c2d565b6040516102699190611c82565b60405180910390f35b61027a610c51565b6040516102879190611a45565b60405180910390f35b6102aa60048036038101906102a59190611cdb565b610c6b565b6040516102b79190611a45565b60405180910390f35b6102da60048036038101906102d59190611acb565b610eb9565b005b6102f660048036038101906102f19190611cdb565b61115f565b6040516103039190611a45565b60405180910390f35b61032660048036038101906103219190611cdb565b6111c1565b6040516103339190611a45565b60405180910390f35b610344611224565b6040516103519190611a45565b60405180910390f35b610374600480360381019061036f9190611d1b565b6112ba565b005b61037e611489565b60405161038b9190611a45565b60405180910390f35b6103ae60048036038101906103a99190611ba5565b61148f565b6040516103bb9190611a45565b60405180910390f35b60007f000000000000000000000000000000000000000000000000000000000000000073ffffffffffffffffffffffffffffffffffffffff16631053eaa36040518163ffffffff1660e01b8152600401602060405180830381865afa158015610431573d6000803e3d6000fd5b505050506040513d601f19601f820116820180604052508101906104559190611d74565b905090565b60055481565b6104686103c4565b156104a8576040517f08c379a000000000000000000000000000000000000000000000000000000000815260040161049f90611dfe565b60405180910390fd5b6000803373ffffffffffffffffffffffffffffffffffffffff1673ffffffffffffffffffffffffffffffffffffffff16815260200190815260200160002060008361ffff1661ffff16815260200190815260200160002054811115610542576040517f08c379a000000000000000000000000000000000000000000000000000000000815260040161053990611e6a565b60405180910390fd5b61054c3383610c6b565b81111561058e576040517f08c379a000000000000000000000000000000000000000000000000000000000815260040161058590611ed6565b60405180910390fd5b6105993383836114b4565b8161ffff163373ffffffffffffffffffffffffffffffffffffffff167f173e1d9feeeac86f9df1a7a5419b51747340c8fbde4107987dafd0466d25a6ee836040516105e49190611a45565b60405180910390a35050565b7f000000000000000000000000000000000000000000000000000000000000000081565b61061c6103c4565b61065b576040517f08c379a000000000000000000000000000000000000000000000000000000000815260040161065290611f68565b60405180910390fd5b6000600160003373ffffffffffffffffffffffffffffffffffffffff1673ffffffffffffffffffffffffffffffffffffffff16815260200190815260200160002060008361ffff1661ffff168152602001908152602001600020549050600081036106fb576040517f08c379a00000000000000000000000000000000000000000000000000000000081526004016106f290611ffa565b60405180910390fd5b60008060003373ffffffffffffffffffffffffffffffffffffffff1673ffffffffffffffffffffffffffffffffffffffff16815260200190815260200160002060008461ffff1661ffff1681526020019081526020016000205490507f000000000000000000000000000000000000000000000000000000000000000073ffffffffffffffffffffffffffffffffffffffff1663de2927896040518163ffffffff1660e01b8152600401602060405180830381865afa1580156107c2573d6000803e3d6000fd5b505050506040513d601f19601f820116820180604052508101906107e6919061202f565b8361ffff160361091b5760006107fd84848461097f565b905061080a33858561158f565b610815338584611635565b7f000000000000000000000000000000000000000000000000000000000000000073ffffffffffffffffffffffffffffffffffffffff1663b460af94838361085d919061208b565b33306040518463ffffffff1660e01b815260040161087d939291906120ce565b6020604051808303816000875af115801561089c573d6000803e3d6000fd5b505050506040513d601f19601f820116820180604052508101906108c0919061202f565b503373ffffffffffffffffffffffffffffffffffffffff167f705b4547f20b6c26740e28f69ae3e938854f1021d63cce5a39e4ab27ab4c1c9b85838560405161090b93929190612114565b60405180910390a250505061097c565b6109263384836114b4565b3373ffffffffffffffffffffffffffffffffffffffff167f705b4547f20b6c26740e28f69ae3e938854f1021d63cce5a39e4ab27ab4c1c9b8460008460405161097193929190612186565b60405180910390a250505b50565b60008061098a610c51565b90506000610a317f000000000000000000000000000000000000000000000000000000000000000073ffffffffffffffffffffffffffffffffffffffff166307a2d13a876040518263ffffffff1660e01b81526004016109ea9190611a45565b602060405180830381865afa158015610a07573d6000803e3d6000fd5b505050506040513d601f19601f82011682018060405250810190610a2b919061202f565b856116f3565b90506000610b0e7f000000000000000000000000000000000000000000000000000000000000000073ffffffffffffffffffffffffffffffffffffffff166307a2d13a600260008b61ffff1661ffff168152602001908152602001600020546040518263ffffffff1660e01b8152600401610aac9190611a45565b602060405180830381865afa158015610ac9573d6000803e3d6000fd5b505050506040513d601f19601f82011682018060405250810190610aed919061202f565b600360008a61ffff1661ffff168152602001908152602001600020546116f3565b905060008111610b1f576000610b37565b808383610b2c91906121bd565b610b36919061222e565b5b93505050509392505050565b60007f000000000000000000000000000000000000000000000000000000000000000073ffffffffffffffffffffffffffffffffffffffff1663402d267d306040518263ffffffff1660e01b8152600401610b9e919061225f565b602060405180830381865afa158015610bbb573d6000803e3d6000fd5b505050506040513d601f19601f82011682018060405250810190610bdf919061202f565b905090565b7f000000000000000000000000000000000000000000000000000000000000000081565b6000600360008361ffff1661ffff168152602001908152602001600020549050919050565b7f000000000000000000000000000000000000000000000000000000000000000081565b6000610c66610c5e611224565b6004546116f3565b905090565b6000807f000000000000000000000000000000000000000000000000000000000000000073ffffffffffffffffffffffffffffffffffffffff1663ce96cb77306040518263ffffffff1660e01b8152600401610cc7919061225f565b602060405180830381865afa158015610ce4573d6000803e3d6000fd5b505050506040513d601f19601f82011682018060405250810190610d08919061202f565b905060008060008673ffffffffffffffffffffffffffffffffffffffff1673ffffffffffffffffffffffffffffffffffffffff16815260200190815260200160002060008561ffff1661ffff168152602001908152602001600020549050610d6e6103c4565b610d8557610d7c818361171a565b92505050610eb3565b7f000000000000000000000000000000000000000000000000000000000000000073ffffffffffffffffffffffffffffffffffffffff1663de2927896040518163ffffffff1660e01b8152600401602060405180830381865afa158015610df0573d6000803e3d6000fd5b505050506040513d601f19601f82011682018060405250810190610e14919061202f565b8461ffff1603610ea457600081610e8486600160008a73ffffffffffffffffffffffffffffffffffffffff1673ffffffffffffffffffffffffffffffffffffffff16815260200190815260200160002060008961ffff1661ffff168152602001908152602001600020548561097f565b610e8e919061208b565b9050610e9a818461171a565b9350505050610eb3565b610eae818361171a565b925050505b92915050565b610ec16103c4565b15610f01576040517f08c379a0000000000000000000000000000000000000000000000000000000008152600401610ef890611dfe565b60405180910390fd5b610f09610b43565b811115610f4b576040517f08c379a0000000000000000000000000000000000000000000000000000000008152600401610f4290611ed6565b60405180910390fd5b807f000000000000000000000000000000000000000000000000000000000000000073ffffffffffffffffffffffffffffffffffffffff1663dd62ed3e33306040518363ffffffff1660e01b8152600401610fa792919061227a565b602060405180830381865afa158015610fc4573d6000803e3d6000fd5b505050506040513d601f19601f82011682018060405250810190610fe8919061202f565b1015611029576040517f08c379a0000000000000000000000000000000000000000000000000000000008152600401611020906122ef565b60405180910390fd5b7f000000000000000000000000000000000000000000000000000000000000000073ffffffffffffffffffffffffffffffffffffffff16638033c00d6040518163ffffffff1660e01b8152600401602060405180830381865afa158015611094573d6000803e3d6000fd5b505050506040513d601f19601f820116820180604052508101906110b8919061202f565b8261ffff16106110fd576040517f08c379a00000000000000000000000000000000000000000000000000000000081526004016110f49061235b565b60405180910390fd5b611108338383611733565b8161ffff163373ffffffffffffffffffffffffffffffffffffffff167f074be96cbda9766dbe0c925ac833fc192f07104c123e767598a5c06096e6e03d836040516111539190611a45565b60405180910390a35050565b60008060008473ffffffffffffffffffffffffffffffffffffffff1673ffffffffffffffffffffffffffffffffffffffff16815260200190815260200160002060008361ffff1661ffff16815260200190815260200160002054905092915050565b6000600160008473ffffffffffffffffffffffffffffffffffffffff1673ffffffffffffffffffffffffffffffffffffffff16815260200190815260200160002060008361ffff1661ffff16815260200190815260200160002054905092915050565b60007f000000000000000000000000000000000000000000000000000000000000000073ffffffffffffffffffffffffffffffffffffffff166301e1d1146040518163ffffffff1660e01b8152600401602060405180830381865afa158015611291573d6000803e3d6000fd5b505050506040513d601f19601f820116820180604052508101906112b5919061202f565b905090565b6112c26103c4565b15611302576040517f08c379a00000000000000000000000000000000000000000000000000000000081526004016112f990611dfe565b60405180910390fd5b61130a610b43565b81111561134c576040517f08c379a000000000000000000000000000000000000000000000000000000000815260040161134390611ed6565b60405180910390fd5b807f000000000000000000000000000000000000000000000000000000000000000073ffffffffffffffffffffffffffffffffffffffff1663dd62ed3e33306040518363ffffffff1660e01b81526004016113a892919061227a565b602060405180830381865afa1580156113c5573d6000803e3d6000fd5b505050506040513d601f19601f820116820180604052508101906113e9919061202f565b101561142a576040517f08c379a0000000000000000000000000000000000000000000000000000000008152600401611421906122ef565b60405180910390fd5b61143633600083611733565b60003373ffffffffffffffffffffffffffffffffffffffff167f074be96cbda9766dbe0c925ac833fc192f07104c123e767598a5c06096e6e03d8360405161147e9190611a45565b60405180910390a350565b60045481565b6000600260008361ffff1661ffff168152602001908152602001600020549050919050565b6114bf838383611635565b60006114c9611224565b905060007f000000000000000000000000000000000000000000000000000000000000000073ffffffffffffffffffffffffffffffffffffffff1663b460af948385106115165783611518565b845b87306040518463ffffffff1660e01b8152600401611538939291906120ce565b6020604051808303816000875af1158015611557573d6000803e3d6000fd5b505050506040513d601f19601f8201168201806040525081019061157b919061202f565b905061158885858361158f565b5050505050565b80600160008573ffffffffffffffffffffffffffffffffffffffff1673ffffffffffffffffffffffffffffffffffffffff16815260200190815260200160002060008461ffff1661ffff16815260200190815260200160002060008282546115f7919061237b565b9250508190555080600260008461ffff1661ffff1681526020019081526020016000206000828254611629919061237b565b92505081905550505050565b806000808573ffffffffffffffffffffffffffffffffffffffff1673ffffffffffffffffffffffffffffffffffffffff16815260200190815260200160002060008461ffff1661ffff168152602001908152602001600020600082825461169c919061237b565b9250508190555080600360008461ffff1661ffff16815260200190815260200160002060008282546116ce919061237b565b9250508190555080600460008282546116e7919061237b565b92505081905550505050565b6000818314828410171561170657600090505b818311156117145781830390505b92915050565b6000818310611729578161172b565b825b905092915050565b7f000000000000000000000000000000000000000000000000000000000000000073ffffffffffffffffffffffffffffffffffffffff166323b872dd8430846040518463ffffffff1660e01b8152600401611790939291906123af565b6020604051808303816000875af11580156117af573d6000803e3d6000fd5b505050506040513d601f19601f820116820180604052508101906117d39190611d74565b506117df838383611892565b60007f000000000000000000000000000000000000000000000000000000000000000073ffffffffffffffffffffffffffffffffffffffff16636e553f6583306040518363ffffffff1660e01b815260040161183c9291906123e6565b6020604051808303816000875af115801561185b573d6000803e3d6000fd5b505050506040513d601f19601f8201168201806040525081019061187f919061202f565b905061188c848483611950565b50505050565b80600460008282546118a4919061208b565b9250508190555080600360008461ffff1661ffff16815260200190815260200160002060008282546118d6919061208b565b92505081905550806000808573ffffffffffffffffffffffffffffffffffffffff1673ffffffffffffffffffffffffffffffffffffffff16815260200190815260200160002060008461ffff1661ffff1681526020019081526020016000206000828254611944919061208b565b92505081905550505050565b80600260008461ffff1661ffff168152602001908152602001600020600082825461197b919061208b565b9250508190555080600160008573ffffffffffffffffffffffffffffffffffffffff1673ffffffffffffffffffffffffffffffffffffffff16815260200190815260200160002060008461ffff1661ffff16815260200190815260200160002060008282546119ea919061208b565b92505081905550505050565b60008115159050919050565b611a0b816119f6565b82525050565b6000602082019050611a266000830184611a02565b92915050565b6000819050919050565b611a3f81611a2c565b82525050565b6000602082019050611a5a6000830184611a36565b92915050565b600080fd5b600061ffff82169050919050565b611a7c81611a65565b8114611a8757600080fd5b50565b600081359050611a9981611a73565b92915050565b611aa881611a2c565b8114611ab357600080fd5b50565b600081359050611ac581611a9f565b92915050565b60008060408385031215611ae257611ae1611a60565b5b6000611af085828601611a8a565b9250506020611b0185828601611ab6565b9150509250929050565b600073ffffffffffffffffffffffffffffffffffffffff82169050919050565b6000819050919050565b6000611b50611b4b611b4684611b0b565b611b2b565b611b0b565b9050919050565b6000611b6282611b35565b9050919050565b6000611b7482611b57565b9050919050565b611b8481611b69565b82525050565b6000602082019050611b9f6000830184611b7b565b92915050565b600060208284031215611bbb57611bba611a60565b5b6000611bc984828501611a8a565b91505092915050565b600080600060608486031215611beb57611bea611a60565b5b6000611bf986828701611a8a565b9350506020611c0a86828701611ab6565b9250506040611c1b86828701611ab6565b9150509250925092565b6000611c3082611b57565b9050919050565b611c4081611c25565b82525050565b6000602082019050611c5b6000830184611c37565b92915050565b6000611c6c82611b57565b9050919050565b611c7c81611c61565b82525050565b6000602082019050611c976000830184611c73565b92915050565b6000611ca882611b0b565b9050919050565b611cb881611c9d565b8114611cc357600080fd5b50565b600081359050611cd581611caf565b92915050565b60008060408385031215611cf257611cf1611a60565b5b6000611d0085828601611cc6565b9250506020611d1185828601611a8a565b9150509250929050565b600060208284031215611d3157611d30611a60565b5b6000611d3f84828501611ab6565b91505092915050565b611d51816119f6565b8114611d5c57600080fd5b50565b600081519050611d6e81611d48565b92915050565b600060208284031215611d8a57611d89611a60565b5b6000611d9884828501611d5f565b91505092915050565b600082825260208201905092915050565b7f506f6f6c20616c726561647920636c6f73656400000000000000000000000000600082015250565b6000611de8601383611da1565b9150611df382611db2565b602082019050919050565b60006020820190508181036000830152611e1781611ddb565b9050919050565b7f4e6f7420656e6f756768207374616b652c2061646a75737420616d6f756e742e600082015250565b6000611e54602083611da1565b9150611e5f82611e1e565b602082019050919050565b60006020820190508181036000830152611e8381611e47565b9050919050565b7f416d6f756e7420746f6f206269672e0000000000000000000000000000000000600082015250565b6000611ec0600f83611da1565b9150611ecb82611e8a565b602082019050919050565b60006020820190508181036000830152611eef81611eb3565b9050919050565b7f506f6f6c206973207374696c6c206f70656e212055736520756e5374616b652860008201527f2900000000000000000000000000000000000000000000000000000000000000602082015250565b6000611f52602183611da1565b9150611f5d82611ef6565b604082019050919050565b60006020820190508181036000830152611f8181611f45565b9050919050565b7f4e6f7468696e6720746f2077697468647261772e2041646a757374206f75746360008201527f6f6d652e00000000000000000000000000000000000000000000000000000000602082015250565b6000611fe4602483611da1565b9150611fef82611f88565b604082019050919050565b6000602082019050818103600083015261201381611fd7565b9050919050565b60008151905061202981611a9f565b92915050565b60006020828403121561204557612044611a60565b5b60006120538482850161201a565b91505092915050565b7f4e487b7100000000000000000000000000000000000000000000000000000000600052601160045260246000fd5b600061209682611a2c565b91506120a183611a2c565b92508282019050808211156120b9576120b861205c565b5b92915050565b6120c881611c9d565b82525050565b60006060820190506120e36000830186611a36565b6120f060208301856120bf565b6120fd60408301846120bf565b949350505050565b61210e81611a65565b82525050565b60006060820190506121296000830186612105565b6121366020830185611a36565b6121436040830184611a36565b949350505050565b6000819050919050565b600061217061216b6121668461214b565b611b2b565b611a2c565b9050919050565b61218081612155565b82525050565b600060608201905061219b6000830186612105565b6121a86020830185612177565b6121b56040830184611a36565b949350505050565b60006121c882611a2c565b91506121d383611a2c565b92508282026121e181611a2c565b915082820484148315176121f8576121f761205c565b5b5092915050565b7f4e487b7100000000000000000000000000000000000000000000000000000000600052601260045260246000fd5b600061223982611a2c565b915061224483611a2c565b925082612254576122536121ff565b5b828204905092915050565b600060208201905061227460008301846120bf565b92915050565b600060408201905061228f60008301856120bf565b61229c60208301846120bf565b9392505050565b7f4e6f7420656e6f75676820616c6c6f77616e63652e0000000000000000000000600082015250565b60006122d9601583611da1565b91506122e4826122a3565b602082019050919050565b60006020820190508181036000830152612308816122cc565b9050919050565b7f496e76616c6964207069636b0000000000000000000000000000000000000000600082015250565b6000612345600c83611da1565b91506123508261230f565b602082019050919050565b6000602082019050818103600083015261237481612338565b9050919050565b600061238682611a2c565b915061239183611a2c565b92508282039050818111156123a9576123a861205c565b5b92915050565b60006060820190506123c460008301866120bf565b6123d160208301856120bf565b6123de6040830184611a36565b949350505050565b60006040820190506123fb6000830185611a36565b61240860208301846120bf565b939250505056fea2646970667358221220866125039bbb2fae770aeeb584e7a8b466a07c49c2a4087fd32115f10b8ec41964736f6c63430008140033a264697066735822122080fdabb733b59dba5792bfe059bff25685a19ca3ab6d4462df9b83784306c1ff64736f6c63430008140033",
  "devdoc": {
    "kind": "dev",
    "methods": {},
    "version": 1
  },
  "userdoc": {
    "kind": "user",
    "methods": {},
    "version": 1
  },
  "storageLayout": {
    "storage": [],
    "types": null
  }
}