{
  "address": "0x6C17A4607A15B53331469319CE6Ea129a31aB0Cb",
  "abi": [
    {
      "inputs": [
        {
          "internalType": "address",
          "name": "router",
          "type": "address"
        },
        {
          "internalType": "bytes32",
          "name": "_donId",
          "type": "bytes32"
        },
        {
          "internalType": "uint64",
          "name": "_subscriptionId",
          "type": "uint64"
        }
      ],
      "stateMutability": "nonpayable",
      "type": "constructor"
    },
    {
      "inputs": [],
      "name": "EmptySource",
      "type": "error"
    },
    {
      "inputs": [],
      "name": "NoInlineSecrets",
      "type": "error"
    },
    {
      "inputs": [],
      "name": "OnlyRouterCanFulfill",
      "type": "error"
    },
    {
      "anonymous": false,
      "inputs": [
        {
          "indexed": true,
          "internalType": "address",
          "name": "from",
          "type": "address"
        },
        {
          "indexed": true,
          "internalType": "address",
          "name": "to",
          "type": "address"
        }
      ],
      "name": "OwnershipTransferRequested",
      "type": "event"
    },
    {
      "anonymous": false,
      "inputs": [
        {
          "indexed": true,
          "internalType": "address",
          "name": "from",
          "type": "address"
        },
        {
          "indexed": true,
          "internalType": "address",
          "name": "to",
          "type": "address"
        }
      ],
      "name": "OwnershipTransferred",
      "type": "event"
    },
    {
      "anonymous": false,
      "inputs": [
        {
          "indexed": true,
          "internalType": "bytes32",
          "name": "id",
          "type": "bytes32"
        }
      ],
      "name": "RequestFulfilled",
      "type": "event"
    },
    {
      "anonymous": false,
      "inputs": [
        {
          "indexed": true,
          "internalType": "bytes32",
          "name": "id",
          "type": "bytes32"
        }
      ],
      "name": "RequestSent",
      "type": "event"
    },
    {
      "anonymous": false,
      "inputs": [
        {
          "indexed": true,
          "internalType": "address",
          "name": "controller",
          "type": "address"
        },
        {
          "indexed": true,
          "internalType": "uint256",
          "name": "result",
          "type": "uint256"
        }
      ],
      "name": "resultGenerated",
      "type": "event"
    },
    {
      "inputs": [],
      "name": "_getOutcomesCount",
      "outputs": [
        {
          "internalType": "uint256",
          "name": "",
          "type": "uint256"
        }
      ],
      "stateMutability": "view",
      "type": "function"
    },
    {
      "inputs": [],
      "name": "acceptOwnership",
      "outputs": [],
      "stateMutability": "nonpayable",
      "type": "function"
    },
    {
      "inputs": [],
      "name": "donId",
      "outputs": [
        {
          "internalType": "bytes32",
          "name": "",
          "type": "bytes32"
        }
      ],
      "stateMutability": "view",
      "type": "function"
    },
    {
      "inputs": [],
      "name": "getGame",
      "outputs": [
        {
          "internalType": "bytes32",
          "name": "",
          "type": "bytes32"
        }
      ],
      "stateMutability": "view",
      "type": "function"
    },
    {
      "inputs": [
        {
          "internalType": "uint256",
          "name": "index",
          "type": "uint256"
        }
      ],
      "name": "getOutcomeName",
      "outputs": [
        {
          "internalType": "bytes32",
          "name": "",
          "type": "bytes32"
        }
      ],
      "stateMutability": "view",
      "type": "function"
    },
    {
      "inputs": [],
      "name": "getOutcomesCount",
      "outputs": [
        {
          "internalType": "uint256",
          "name": "",
          "type": "uint256"
        }
      ],
      "stateMutability": "view",
      "type": "function"
    },
    {
      "inputs": [],
      "name": "getResult",
      "outputs": [
        {
          "internalType": "uint256",
          "name": "",
          "type": "uint256"
        }
      ],
      "stateMutability": "view",
      "type": "function"
    },
    {
      "inputs": [
        {
          "internalType": "bytes32",
          "name": "requestId",
          "type": "bytes32"
        },
        {
          "internalType": "bytes",
          "name": "response",
          "type": "bytes"
        },
        {
          "internalType": "bytes",
          "name": "err",
          "type": "bytes"
        }
      ],
      "name": "handleOracleFulfillment",
      "outputs": [],
      "stateMutability": "nonpayable",
      "type": "function"
    },
    {
      "inputs": [],
      "name": "hasResult",
      "outputs": [
        {
          "internalType": "bool",
          "name": "",
          "type": "bool"
        }
      ],
      "stateMutability": "view",
      "type": "function"
    },
    {
      "inputs": [],
      "name": "owner",
      "outputs": [
        {
          "internalType": "address",
          "name": "",
          "type": "address"
        }
      ],
      "stateMutability": "view",
      "type": "function"
    },
    {
      "inputs": [],
      "name": "s_lastError",
      "outputs": [
        {
          "internalType": "string",
          "name": "",
          "type": "string"
        }
      ],
      "stateMutability": "view",
      "type": "function"
    },
    {
      "inputs": [],
      "name": "s_lastRequestId",
      "outputs": [
        {
          "internalType": "bytes32",
          "name": "",
          "type": "bytes32"
        }
      ],
      "stateMutability": "view",
      "type": "function"
    },
    {
      "inputs": [],
      "name": "sendRequest",
      "outputs": [],
      "stateMutability": "nonpayable",
      "type": "function"
    },
    {
      "inputs": [
        {
          "internalType": "address",
          "name": "to",
          "type": "address"
        }
      ],
      "name": "transferOwnership",
      "outputs": [],
      "stateMutability": "nonpayable",
      "type": "function"
    }
  ],
  "transactionHash": "0xbda42cb7010d610f2ff25a3ebc6e475d74277912ad8d8aa5666fa59c3c9f4106",
  "args": [
    "0x6E2dc0F9DB014aE19888F539E59285D2Ea04244C",
    "0x66756e2d706f6c79676f6e2d6d756d6261692d31000000000000000000000000",
    927
  ],
  "numDeployments": 1,
  "solcInputHash": "7242e37b091f253119cb47febfa89c7e",
  "bytecode": "0x60a06040523480156200001157600080fd5b5060405162002fa438038062002fa4833981810160405281019062000037919062000604565b338060008560008060006101000a81548160ff0219169083151502179055508073ffffffffffffffffffffffffffffffffffffffff1660808173ffffffffffffffffffffffffffffffffffffffff168152505050600073ffffffffffffffffffffffffffffffffffffffff168273ffffffffffffffffffffffffffffffffffffffff1603620000fd576040517f08c379a0000000000000000000000000000000000000000000000000000000008152600401620000f490620006c1565b60405180910390fd5b81600260006101000a81548173ffffffffffffffffffffffffffffffffffffffff021916908373ffffffffffffffffffffffffffffffffffffffff160217905550600073ffffffffffffffffffffffffffffffffffffffff168173ffffffffffffffffffffffffffffffffffffffff161462000185576200018481620001d160201b60201c565b5b50505080600560006101000a81548167ffffffffffffffff021916908367ffffffffffffffff16021790555081600481905550620001c86200030260201b60201c565b50505062000755565b3373ffffffffffffffffffffffffffffffffffffffff168173ffffffffffffffffffffffffffffffffffffffff160362000242576040517f08c379a0000000000000000000000000000000000000000000000000000000008152600401620002399062000733565b60405180910390fd5b80600360006101000a81548173ffffffffffffffffffffffffffffffffffffffff021916908373ffffffffffffffffffffffffffffffffffffffff1602179055508073ffffffffffffffffffffffffffffffffffffffff16600260009054906101000a900473ffffffffffffffffffffffffffffffffffffffff1673ffffffffffffffffffffffffffffffffffffffff167fed8889f560326eb138920d842192f0eb3dd22b4f139c87a2c57538e05bae127860405160405180910390a350565b620003337f5265616c204d6164726964000000000000000000000000000000000000000000620004ee60201b60201c565b620003647f42617263656c6f6e610000000000000000000000000000000000000000000000620004ee60201b60201c565b620003957f4d616e6368657374657220556e69746564000000000000000000000000000000620004ee60201b60201c565b620003c67f42617965726e204d756e69636800000000000000000000000000000000000000620004ee60201b60201c565b620003f77f4a7576656e747573000000000000000000000000000000000000000000000000620004ee60201b60201c565b620004287f5061726973205361696e742d4765726d61696e00000000000000000000000000620004ee60201b60201c565b620004597f4c69766572706f6f6c0000000000000000000000000000000000000000000000620004ee60201b60201c565b6200048a7f4368656c73656100000000000000000000000000000000000000000000000000620004ee60201b60201c565b620004bb7f4d616e6368657374657220436974790000000000000000000000000000000000620004ee60201b60201c565b620004ec7f41746c657469636f204d61647269640000000000000000000000000000000000620004ee60201b60201c565b565b600181908060018154018082558091505060019003906000526020600020016000909190919091505550565b600080fd5b600073ffffffffffffffffffffffffffffffffffffffff82169050919050565b60006200054c826200051f565b9050919050565b6200055e816200053f565b81146200056a57600080fd5b50565b6000815190506200057e8162000553565b92915050565b6000819050919050565b620005998162000584565b8114620005a557600080fd5b50565b600081519050620005b9816200058e565b92915050565b600067ffffffffffffffff82169050919050565b620005de81620005bf565b8114620005ea57600080fd5b50565b600081519050620005fe81620005d3565b92915050565b60008060006060848603121562000620576200061f6200051a565b5b600062000630868287016200056d565b93505060206200064386828701620005a8565b92505060406200065686828701620005ed565b9150509250925092565b600082825260208201905092915050565b7f43616e6e6f7420736574206f776e657220746f207a65726f0000000000000000600082015250565b6000620006a960188362000660565b9150620006b68262000671565b602082019050919050565b60006020820190508181036000830152620006dc816200069a565b9050919050565b7f43616e6e6f74207472616e7366657220746f2073656c66000000000000000000600082015250565b60006200071b60178362000660565b91506200072882620006e3565b602082019050919050565b600060208201905081810360008301526200074e816200070c565b9050919050565b60805161282c620007786000396000818161027b0152610f5e015261282c6000f3fe608060405234801561001057600080fd5b50600436106100ea5760003560e01c80638033c00d1161008c578063b1e2174911610066578063b1e21749146101f1578063de2927891461020f578063de5005cd1461022d578063f2fde38b1461025d576100ea565b80638033c00d146101975780638da5cb5b146101b55780638dbe7b9d146101d3576100ea565b8063301ccdfa116100c8578063301ccdfa146101335780634494fd9f146101515780634b0795a81461016f57806379ba50971461018d576100ea565b80630ca76175146100ef5780631053eaa31461010b5780631bee2f2a14610129575b600080fd5b61010960048036038101906101049190611a66565b610279565b005b61011361033b565b6040516101209190611b0c565b60405180910390f35b610131610351565b005b61013b6103c9565b6040516101489190611b40565b60405180910390f35b6101596103d6565b6040516101669190611b6a565b60405180910390f35b6101776103e5565b6040516101849190611c04565b60405180910390f35b610195610473565b005b61019f61060a565b6040516101ac9190611b40565b60405180910390f35b6101bd610619565b6040516101ca9190611c67565b60405180910390f35b6101db610643565b6040516101e89190611b6a565b60405180910390f35b6101f9610649565b6040516102069190611b6a565b60405180910390f35b61021761064f565b6040516102249190611b40565b60405180910390f35b61024760048036038101906102429190611cae565b61066a565b6040516102549190611b6a565b60405180910390f35b61027760048036038101906102729190611d07565b610692565b005b7f000000000000000000000000000000000000000000000000000000000000000073ffffffffffffffffffffffffffffffffffffffff163373ffffffffffffffffffffffffffffffffffffffff16146102fe576040517fc6829f8300000000000000000000000000000000000000000000000000000000815260040160405180910390fd5b6103098383836106a6565b827f85e1543bf2f84fe80c6badbce3648c8539ad1df4d2b3d822938ca0538be727e660405160405180910390a2505050565b60008060009054906101000a900460ff16905090565b610359610a01565b61036161182a565b6103916000806040518060600160405280602381526020016127d46023913984610a93909392919063ffffffff16565b6103c061039d82610b3d565b600560009054906101000a900467ffffffffffffffff16620493e0600454610f59565b60068190555050565b6000600180549050905090565b60006103e061103c565b905090565b600780546103f290611d63565b80601f016020809104026020016040519081016040528092919081815260200182805461041e90611d63565b801561046b5780601f106104405761010080835404028352916020019161046b565b820191906000526020600020905b81548152906001019060200180831161044e57829003601f168201915b505050505081565b600360009054906101000a900473ffffffffffffffffffffffffffffffffffffffff1673ffffffffffffffffffffffffffffffffffffffff163373ffffffffffffffffffffffffffffffffffffffff1614610503576040517f08c379a00000000000000000000000000000000000000000000000000000000081526004016104fa90611de0565b60405180910390fd5b6000600260009054906101000a900473ffffffffffffffffffffffffffffffffffffffff16905033600260006101000a81548173ffffffffffffffffffffffffffffffffffffffff021916908373ffffffffffffffffffffffffffffffffffffffff1602179055506000600360006101000a81548173ffffffffffffffffffffffffffffffffffffffff021916908373ffffffffffffffffffffffffffffffffffffffff1602179055503373ffffffffffffffffffffffffffffffffffffffff168173ffffffffffffffffffffffffffffffffffffffff167f8be0079c531659141344cd1fd0a4f28419497f9722a3daafe3b4186f6b6457e060405160405180910390a350565b60006106146103c9565b905090565b6000600260009054906101000a900473ffffffffffffffffffffffffffffffffffffffff16905090565b60045481565b60065481565b60008060019054906101000a900461ffff1661ffff16905090565b6000600182815481106106805761067f611e00565b5b90600052602060002001549050919050565b61069a610a01565b6106a38161106a565b50565b80600790816106b59190611fdb565b506000828051906020012090506040518060400160405280600181526020017f30000000000000000000000000000000000000000000000000000000000000008152508051906020012081036107145761070f6000611198565b6109fb565b6040518060400160405280600181526020017f3100000000000000000000000000000000000000000000000000000000000000815250805190602001208103610766576107616001611198565b6109fa565b6040518060400160405280600181526020017f32000000000000000000000000000000000000000000000000000000000000008152508051906020012081036107b8576107b36002611198565b6109f9565b6040518060400160405280600181526020017f330000000000000000000000000000000000000000000000000000000000000081525080519060200120810361080a576108056003611198565b6109f8565b6040518060400160405280600181526020017f340000000000000000000000000000000000000000000000000000000000000081525080519060200120810361085c576108576004611198565b6109f7565b6040518060400160405280600181526020017f35000000000000000000000000000000000000000000000000000000000000008152508051906020012081036108ae576108a96005611198565b6109f6565b6040518060400160405280600181526020017f3600000000000000000000000000000000000000000000000000000000000000815250805190602001208103610900576108fb6006611198565b6109f5565b6040518060400160405280600181526020017f37000000000000000000000000000000000000000000000000000000000000008152508051906020012081036109525761094d6007611198565b6109f4565b6040518060400160405280600181526020017f38000000000000000000000000000000000000000000000000000000000000008152508051906020012081036109a45761099f6008611198565b6109f3565b6040518060400160405280600181526020017f39000000000000000000000000000000000000000000000000000000000000008152508051906020012081036109f2576109f16009611198565b5b5b5b5b5b5b5b5b5b5b50505050565b600260009054906101000a900473ffffffffffffffffffffffffffffffffffffffff1673ffffffffffffffffffffffffffffffffffffffff163373ffffffffffffffffffffffffffffffffffffffff1614610a91576040517f08c379a0000000000000000000000000000000000000000000000000000000008152600401610a88906120f9565b60405180910390fd5b565b6000815103610ace576040517f22ce3edd00000000000000000000000000000000000000000000000000000000815260040160405180910390fd5b8284600001906002811115610ae657610ae5612119565b5b90816002811115610afa57610af9612119565b5b815250508184604001906000811115610b1657610b15612119565b5b90816000811115610b2a57610b29612119565b5b8152505080846060018190525050505050565b60606000610b4c6101006112af565b9050610b966040518060400160405280600c81526020017f636f64654c6f636174696f6e0000000000000000000000000000000000000000815250826112d690919063ffffffff16565b610bbf83600001516002811115610bb057610baf612119565b5b826112ff90919063ffffffff16565b610c076040518060400160405280600881526020017f6c616e6775616765000000000000000000000000000000000000000000000000815250826112d690919063ffffffff16565b610c3083604001516000811115610c2157610c20612119565b5b826112ff90919063ffffffff16565b610c786040518060400160405280600681526020017f736f757263650000000000000000000000000000000000000000000000000000815250826112d690919063ffffffff16565b610c8f8360600151826112d690919063ffffffff16565b60008360a00151511115610d4b57610ce56040518060400160405280600481526020017f6172677300000000000000000000000000000000000000000000000000000000815250826112d690919063ffffffff16565b610cee8161134f565b60005b8360a0015151811015610d4057610d2f8460a001518281518110610d1857610d17611e00565b5b6020026020010151836112d690919063ffffffff16565b80610d3990612177565b9050610cf1565b50610d4a81611377565b5b60008360800151511115610e8c5760006002811115610d6d57610d6c612119565b5b83602001516002811115610d8457610d83612119565b5b03610dbb576040517fa80d31f700000000000000000000000000000000000000000000000000000000815260040160405180910390fd5b610e036040518060400160405280600f81526020017f736563726574734c6f636174696f6e0000000000000000000000000000000000815250826112d690919063ffffffff16565b610e2c83602001516002811115610e1d57610e1c612119565b5b826112ff90919063ffffffff16565b610e746040518060400160405280600781526020017f7365637265747300000000000000000000000000000000000000000000000000815250826112d690919063ffffffff16565b610e8b83608001518261139f90919063ffffffff16565b5b60008360c00151511115610f4857610ee26040518060400160405280600981526020017f6279746573417267730000000000000000000000000000000000000000000000815250826112d690919063ffffffff16565b610eeb8161134f565b60005b8360c0015151811015610f3d57610f2c8460c001518281518110610f1557610f14611e00565b5b60200260200101518361139f90919063ffffffff16565b80610f3690612177565b9050610eee565b50610f4781611377565b5b806000015160000151915050919050565b6000807f000000000000000000000000000000000000000000000000000000000000000073ffffffffffffffffffffffffffffffffffffffff1663461d27628688600188886040518663ffffffff1660e01b8152600401610fbe959493929190612273565b6020604051808303816000875af1158015610fdd573d6000803e3d6000fd5b505050506040513d601f19601f8201168201806040525081019061100191906122e2565b9050807f1131472297a800fee664d1d89cfa8f7676ff07189ecc53f80bbb5f4969099db860405160405180910390a280915050949350505050565b600060405160200161104d90612366565b604051602081830303815290604052611065906123a0565b905090565b3373ffffffffffffffffffffffffffffffffffffffff168173ffffffffffffffffffffffffffffffffffffffff16036110d8576040517f08c379a00000000000000000000000000000000000000000000000000000000081526004016110cf90612453565b60405180910390fd5b80600360006101000a81548173ffffffffffffffffffffffffffffffffffffffff021916908373ffffffffffffffffffffffffffffffffffffffff1602179055508073ffffffffffffffffffffffffffffffffffffffff16600260009054906101000a900473ffffffffffffffffffffffffffffffffffffffff1673ffffffffffffffffffffffffffffffffffffffff167fed8889f560326eb138920d842192f0eb3dd22b4f139c87a2c57538e05bae127860405160405180910390a350565b60008054906101000a900460ff16156111e6576040517f08c379a00000000000000000000000000000000000000000000000000000000081526004016111dd906124bf565b60405180910390fd5b60008161ffff160361122d576040517f08c379a00000000000000000000000000000000000000000000000000000000081526004016112249061252b565b60405180910390fd5b60016000806101000a81548160ff02191690831515021790555080600060016101000a81548161ffff021916908361ffff1602179055508061ffff163073ffffffffffffffffffffffffffffffffffffffff167f19d22413a5e18244e9883866082c3fd384c3b031c96fac8b7a6a7c4dfbb90bf360405160405180910390a350565b6112b761189c565b6112c58160000151836113c8565b506000816020018181525050919050565b6112e38260038351611441565b6112fa8183600001516115ea90919063ffffffff16565b505050565b61132160026005600660ff16901b17836000015161160690919063ffffffff16565b5061134b82826040516020016113379190611b40565b60405160208183030381529060405261139f565b5050565b61135a816004611670565b60018160200181815161136d919061254b565b9150818152505050565b611382816007611670565b600181602001818151611395919061257f565b9150818152505050565b6113ac8260028351611441565b6113c38183600001516115ea90919063ffffffff16565b505050565b6113d06118bc565b60006020836113df91906125e2565b1461140b576020826113f191906125e2565b60206113fd919061257f565b82611408919061254b565b91505b81836020018181525050604051808452600081528281016020018181101561143257600080fd5b80604052505082905092915050565b60178167ffffffffffffffff161161147c576114768160058460ff16901b60ff1617846000015161160690919063ffffffff16565b506115e5565b60ff8167ffffffffffffffff16116114da576114af601860058460ff16901b17846000015161160690919063ffffffff16565b506114d48167ffffffffffffffff16600185600001516116969092919063ffffffff16565b506115e4565b61ffff8167ffffffffffffffff16116115395761150e601960058460ff16901b17846000015161160690919063ffffffff16565b506115338167ffffffffffffffff16600285600001516116969092919063ffffffff16565b506115e3565b63ffffffff8167ffffffffffffffff161161159a5761156f601a60058460ff16901b17846000015161160690919063ffffffff16565b506115948167ffffffffffffffff16600485600001516116969092919063ffffffff16565b506115e2565b6115bb601b60058460ff16901b17846000015161160690919063ffffffff16565b506115e08167ffffffffffffffff16600885600001516116969092919063ffffffff16565b505b5b5b5b505050565b6115f26118bc565b6115fe83838451611723565b905092915050565b61160e6118bc565b600083600001515190506000600182611627919061254b565b90508460200151821061164b5761164a856002836116459190612613565b611806565b5b84516020838201018581538151831115611663578282525b5050849250505092915050565b611691601f60058360ff16901b17836000015161160690919063ffffffff16565b505050565b61169e6118bc565b60008460000151519050600081846116b6919061254b565b905085602001518111156116db576116da866002836116d59190612613565b611806565b5b60006001856101006116ed9190612788565b6116f7919061257f565b905086518281018783198251161781528151841115611714578382525b50508693505050509392505050565b61172b6118bc565b825182111561173957600080fd5b6000846000015151905060008382611751919061254b565b9050856020015181111561177657611775866002836117709190612613565b611806565b5b60008087518051856020830101935080851115611791578482525b60208901925050505b602086106117d857805182526020826117b3919061254b565b91506020816117c2919061254b565b90506020866117d1919061257f565b955061179a565b60006001876020036101000a0390508019825116818451168181178552505050879450505050509392505050565b60008260000151905061181983836113c8565b5061182483826115ea565b50505050565b6040518060e001604052806000600281111561184957611848612119565b5b81526020016000600281111561186257611861612119565b5b815260200160008081111561187a57611879612119565b5b8152602001606081526020016060815260200160608152602001606081525090565b60405180604001604052806118af6118bc565b8152602001600081525090565b604051806040016040528060608152602001600081525090565b6000604051905090565b600080fd5b600080fd5b6000819050919050565b6118fd816118ea565b811461190857600080fd5b50565b60008135905061191a816118f4565b92915050565b600080fd5b600080fd5b6000601f19601f8301169050919050565b7f4e487b7100000000000000000000000000000000000000000000000000000000600052604160045260246000fd5b6119738261192a565b810181811067ffffffffffffffff821117156119925761199161193b565b5b80604052505050565b60006119a56118d6565b90506119b1828261196a565b919050565b600067ffffffffffffffff8211156119d1576119d061193b565b5b6119da8261192a565b9050602081019050919050565b82818337600083830152505050565b6000611a09611a04846119b6565b61199b565b905082815260208101848484011115611a2557611a24611925565b5b611a308482856119e7565b509392505050565b600082601f830112611a4d57611a4c611920565b5b8135611a5d8482602086016119f6565b91505092915050565b600080600060608486031215611a7f57611a7e6118e0565b5b6000611a8d8682870161190b565b935050602084013567ffffffffffffffff811115611aae57611aad6118e5565b5b611aba86828701611a38565b925050604084013567ffffffffffffffff811115611adb57611ada6118e5565b5b611ae786828701611a38565b9150509250925092565b60008115159050919050565b611b0681611af1565b82525050565b6000602082019050611b216000830184611afd565b92915050565b6000819050919050565b611b3a81611b27565b82525050565b6000602082019050611b556000830184611b31565b92915050565b611b64816118ea565b82525050565b6000602082019050611b7f6000830184611b5b565b92915050565b600081519050919050565b600082825260208201905092915050565b60005b83811015611bbf578082015181840152602081019050611ba4565b60008484015250505050565b6000611bd682611b85565b611be08185611b90565b9350611bf0818560208601611ba1565b611bf98161192a565b840191505092915050565b60006020820190508181036000830152611c1e8184611bcb565b905092915050565b600073ffffffffffffffffffffffffffffffffffffffff82169050919050565b6000611c5182611c26565b9050919050565b611c6181611c46565b82525050565b6000602082019050611c7c6000830184611c58565b92915050565b611c8b81611b27565b8114611c9657600080fd5b50565b600081359050611ca881611c82565b92915050565b600060208284031215611cc457611cc36118e0565b5b6000611cd284828501611c99565b91505092915050565b611ce481611c46565b8114611cef57600080fd5b50565b600081359050611d0181611cdb565b92915050565b600060208284031215611d1d57611d1c6118e0565b5b6000611d2b84828501611cf2565b91505092915050565b7f4e487b7100000000000000000000000000000000000000000000000000000000600052602260045260246000fd5b60006002820490506001821680611d7b57607f821691505b602082108103611d8e57611d8d611d34565b5b50919050565b7f4d7573742062652070726f706f736564206f776e657200000000000000000000600082015250565b6000611dca601683611b90565b9150611dd582611d94565b602082019050919050565b60006020820190508181036000830152611df981611dbd565b9050919050565b7f4e487b7100000000000000000000000000000000000000000000000000000000600052603260045260246000fd5b60008190508160005260206000209050919050565b60006020601f8301049050919050565b600082821b905092915050565b600060088302611e917fffffffffffffffffffffffffffffffffffffffffffffffffffffffffffffffff82611e54565b611e9b8683611e54565b95508019841693508086168417925050509392505050565b6000819050919050565b6000611ed8611ed3611ece84611b27565b611eb3565b611b27565b9050919050565b6000819050919050565b611ef283611ebd565b611f06611efe82611edf565b848454611e61565b825550505050565b600090565b611f1b611f0e565b611f26818484611ee9565b505050565b5b81811015611f4a57611f3f600082611f13565b600181019050611f2c565b5050565b601f821115611f8f57611f6081611e2f565b611f6984611e44565b81016020851015611f78578190505b611f8c611f8485611e44565b830182611f2b565b50505b505050565b600082821c905092915050565b6000611fb260001984600802611f94565b1980831691505092915050565b6000611fcb8383611fa1565b9150826002028217905092915050565b611fe482611b85565b67ffffffffffffffff811115611ffd57611ffc61193b565b5b6120078254611d63565b612012828285611f4e565b600060209050601f8311600181146120455760008415612033578287015190505b61203d8582611fbf565b8655506120a5565b601f19841661205386611e2f565b60005b8281101561207b57848901518255600182019150602085019450602081019050612056565b868310156120985784890151612094601f891682611fa1565b8355505b6001600288020188555050505b505050505050565b7f4f6e6c792063616c6c61626c65206279206f776e657200000000000000000000600082015250565b60006120e3601683611b90565b91506120ee826120ad565b602082019050919050565b60006020820190508181036000830152612112816120d6565b9050919050565b7f4e487b7100000000000000000000000000000000000000000000000000000000600052602160045260246000fd5b7f4e487b7100000000000000000000000000000000000000000000000000000000600052601160045260246000fd5b600061218282611b27565b91507fffffffffffffffffffffffffffffffffffffffffffffffffffffffffffffffff82036121b4576121b3612148565b5b600182019050919050565b600067ffffffffffffffff82169050919050565b6121dc816121bf565b82525050565b600081519050919050565b600082825260208201905092915050565b6000612209826121e2565b61221381856121ed565b9350612223818560208601611ba1565b61222c8161192a565b840191505092915050565b600061ffff82169050919050565b61224e81612237565b82525050565b600063ffffffff82169050919050565b61226d81612254565b82525050565b600060a08201905061228860008301886121d3565b818103602083015261229a81876121fe565b90506122a96040830186612245565b6122b66060830185612264565b6122c36080830184611b5b565b9695505050505050565b6000815190506122dc816118f4565b92915050565b6000602082840312156122f8576122f76118e0565b5b6000612306848285016122cd565b91505092915050565b600081905092915050565b7f55454641204368616d70696f6e73204c65616775650000000000000000000000600082015250565b600061235060158361230f565b915061235b8261231a565b601582019050919050565b600061237182612343565b9150819050919050565b6000819050602082019050919050565b600061239782516118ea565b80915050919050565b60006123ab826121e2565b826123b58461237b565b90506123c08161238b565b92506020821015612400576123fb7fffffffffffffffffffffffffffffffffffffffffffffffffffffffffffffffff83602003600802611e54565b831692505b5050919050565b7f43616e6e6f74207472616e7366657220746f2073656c66000000000000000000600082015250565b600061243d601783611b90565b915061244882612407565b602082019050919050565b6000602082019050818103600083015261246c81612430565b9050919050565b7f416c72656164792068617320726573756c742e00000000000000000000000000600082015250565b60006124a9601383611b90565b91506124b482612473565b602082019050919050565b600060208201905081810360008301526124d88161249c565b9050919050565b7f526573756c742063616e2774206265205a45524f2e0000000000000000000000600082015250565b6000612515601583611b90565b9150612520826124df565b602082019050919050565b6000602082019050818103600083015261254481612508565b9050919050565b600061255682611b27565b915061256183611b27565b925082820190508082111561257957612578612148565b5b92915050565b600061258a82611b27565b915061259583611b27565b92508282039050818111156125ad576125ac612148565b5b92915050565b7f4e487b7100000000000000000000000000000000000000000000000000000000600052601260045260246000fd5b60006125ed82611b27565b91506125f883611b27565b925082612608576126076125b3565b5b828206905092915050565b600061261e82611b27565b915061262983611b27565b925082820261263781611b27565b9150828204841483151761264e5761264d612148565b5b5092915050565b60008160011c9050919050565b6000808291508390505b60018511156126ac5780860481111561268857612687612148565b5b60018516156126975780820291505b80810290506126a585612655565b945061266c565b94509492505050565b6000826126c55760019050612781565b816126d35760009050612781565b81600181146126e957600281146126f357612722565b6001915050612781565b60ff84111561270557612704612148565b5b8360020a91508482111561271c5761271b612148565b5b50612781565b5060208310610133831016604e8410600b84101617156127575782820a90508381111561275257612751612148565b5b612781565b6127648484846001612662565b9250905081840481111561277b5761277a612148565b5b81810290505b9392505050565b600061279382611b27565b915061279e83611b27565b92506127cb7fffffffffffffffffffffffffffffffffffffffffffffffffffffffffffffffff84846126b5565b90509291505056fe72657475726e2046756e6374696f6e732e656e636f6465537472696e6728273527293ba26469706673582212200b90ccb3773afdcf2a791bd37d4d4b1205e4c64cee49e7bbc3e3fb1828cabd6064736f6c63430008140033",
  "devdoc": {
    "kind": "dev",
    "methods": {
      "handleOracleFulfillment(bytes32,bytes,bytes)": {
        "details": "Either response or error parameter will be set, but never both.",
        "params": {
          "err": "Aggregated error either from the request's source code or from the execution pipeline.",
          "requestId": "The requestId returned by FunctionsClient.sendRequest().",
          "response": "Aggregated response from the request's source code."
        }
      }
    },
    "version": 1
  },
  "userdoc": {
    "kind": "user",
    "methods": {
      "acceptOwnership()": {
        "notice": "Allows an ownership transfer to be completed by the recipient."
      },
      "handleOracleFulfillment(bytes32,bytes,bytes)": {
        "notice": "Chainlink Functions response handler called by the Functions Router during fullilment from the designated transmitter node in an OCR round."
      },
      "owner()": {
        "notice": "Get the current owner"
      },
      "transferOwnership(address)": {
        "notice": "Allows an owner to begin transferring ownership to a new address, pending."
      }
    },
    "version": 1
  },
  "storageLayout": {
    "storage": [
      {
        "astId": 3234,
        "contract": "contracts/test/functions/MockController.sol:MockControllerFunction",
        "label": "_hasResult",
        "offset": 0,
        "slot": "0",
        "type": "t_bool"
      },
      {
        "astId": 3236,
        "contract": "contracts/test/functions/MockController.sol:MockControllerFunction",
        "label": "_result",
        "offset": 1,
        "slot": "0",
        "type": "t_uint16"
      },
      {
        "astId": 3239,
        "contract": "contracts/test/functions/MockController.sol:MockControllerFunction",
        "label": "_outcomeNames",
        "offset": 0,
        "slot": "1",
        "type": "t_array(t_bytes32)dyn_storage"
      },
      {
        "astId": 991,
        "contract": "contracts/test/functions/MockController.sol:MockControllerFunction",
        "label": "s_owner",
        "offset": 0,
        "slot": "2",
        "type": "t_address"
      },
      {
        "astId": 993,
        "contract": "contracts/test/functions/MockController.sol:MockControllerFunction",
        "label": "s_pendingOwner",
        "offset": 0,
        "slot": "3",
        "type": "t_address"
      },
      {
        "astId": 7804,
        "contract": "contracts/test/functions/MockController.sol:MockControllerFunction",
        "label": "donId",
        "offset": 0,
        "slot": "4",
        "type": "t_bytes32"
      },
      {
        "astId": 7806,
        "contract": "contracts/test/functions/MockController.sol:MockControllerFunction",
        "label": "subscriptionId",
        "offset": 0,
        "slot": "5",
        "type": "t_uint64"
      },
      {
        "astId": 7808,
        "contract": "contracts/test/functions/MockController.sol:MockControllerFunction",
        "label": "s_lastRequestId",
        "offset": 0,
        "slot": "6",
        "type": "t_bytes32"
      },
      {
        "astId": 7810,
        "contract": "contracts/test/functions/MockController.sol:MockControllerFunction",
        "label": "s_lastError",
        "offset": 0,
        "slot": "7",
        "type": "t_string_storage"
      }
    ],
    "types": {
      "t_address": {
        "encoding": "inplace",
        "label": "address",
        "numberOfBytes": "20"
      },
      "t_array(t_bytes32)dyn_storage": {
        "base": "t_bytes32",
        "encoding": "dynamic_array",
        "label": "bytes32[]",
        "numberOfBytes": "32"
      },
      "t_bool": {
        "encoding": "inplace",
        "label": "bool",
        "numberOfBytes": "1"
      },
      "t_bytes32": {
        "encoding": "inplace",
        "label": "bytes32",
        "numberOfBytes": "32"
      },
      "t_string_storage": {
        "encoding": "bytes",
        "label": "string",
        "numberOfBytes": "32"
      },
      "t_uint16": {
        "encoding": "inplace",
        "label": "uint16",
        "numberOfBytes": "2"
      },
      "t_uint64": {
        "encoding": "inplace",
        "label": "uint64",
        "numberOfBytes": "8"
      }
    }
  }
}