{
  "address": "0x223b44812f1dF181e68B6475039eEC44f708Da7f",
  "abi": [
    {
      "inputs": [
        {
          "internalType": "string",
          "name": "game",
          "type": "string"
        }
      ],
      "stateMutability": "nonpayable",
      "type": "constructor"
    },
    {
      "anonymous": false,
      "inputs": [
        {
          "indexed": true,
          "internalType": "address",
          "name": "controller",
          "type": "address"
        },
        {
          "indexed": true,
          "internalType": "uint256",
          "name": "result",
          "type": "uint256"
        }
      ],
      "name": "resultGenerated",
      "type": "event"
    },
    {
      "inputs": [],
      "name": "_getOutcomesCount",
      "outputs": [
        {
          "internalType": "uint256",
          "name": "",
          "type": "uint256"
        }
      ],
      "stateMutability": "view",
      "type": "function"
    },
    {
      "inputs": [
        {
          "internalType": "uint16",
          "name": "r",
          "type": "uint16"
        }
      ],
      "name": "generateResult",
      "outputs": [],
      "stateMutability": "nonpayable",
      "type": "function"
    },
    {
      "inputs": [],
      "name": "getGame",
      "outputs": [
        {
          "internalType": "bytes32",
          "name": "",
          "type": "bytes32"
        }
      ],
      "stateMutability": "view",
      "type": "function"
    },
    {
      "inputs": [
        {
          "internalType": "uint256",
          "name": "index",
          "type": "uint256"
        }
      ],
      "name": "getOutcomeName",
      "outputs": [
        {
          "internalType": "bytes32",
          "name": "",
          "type": "bytes32"
        }
      ],
      "stateMutability": "view",
      "type": "function"
    },
    {
      "inputs": [],
      "name": "getOutcomesCount",
      "outputs": [
        {
          "internalType": "uint256",
          "name": "",
          "type": "uint256"
        }
      ],
      "stateMutability": "view",
      "type": "function"
    },
    {
      "inputs": [],
      "name": "getResult",
      "outputs": [
        {
          "internalType": "uint256",
          "name": "",
          "type": "uint256"
        }
      ],
      "stateMutability": "view",
      "type": "function"
    },
    {
      "inputs": [],
      "name": "hasResult",
      "outputs": [
        {
          "internalType": "bool",
          "name": "",
          "type": "bool"
        }
      ],
      "stateMutability": "view",
      "type": "function"
    },
    {
      "inputs": [],
      "name": "owner",
      "outputs": [
        {
          "internalType": "address",
          "name": "",
          "type": "address"
        }
      ],
      "stateMutability": "view",
      "type": "function"
    },
    {
      "inputs": [
        {
          "internalType": "bytes32[]",
          "name": "outcomes",
          "type": "bytes32[]"
        }
      ],
      "name": "setOutcomes",
      "outputs": [],
      "stateMutability": "nonpayable",
      "type": "function"
    }
  ],
  "transactionHash": "0x74faaf9faa5f95fad713bec7bf79b768674ecc2d1f532a76441bacda2d92c19a",
  "args": [
    "game"
  ],
  "numDeployments": 1,
  "solcInputHash": "d6c7f0bfdb7a29cc31fc5d9a4a7df3d5",
  "bytecode": "0x60a06040523480156200001157600080fd5b5060405162000e0b38038062000e0b833981810160405281019062000037919062000260565b60008060006101000a81548160ff02191690831515021790555033600260006101000a81548173ffffffffffffffffffffffffffffffffffffffff021916908373ffffffffffffffffffffffffffffffffffffffff16021790555080604051602001620000a59190620002fe565b604051602081830303815290604052620000bf9062000360565b6080818152505050620003d0565b6000604051905090565b600080fd5b600080fd5b600080fd5b600080fd5b6000601f19601f8301169050919050565b7f4e487b7100000000000000000000000000000000000000000000000000000000600052604160045260246000fd5b6200013682620000eb565b810181811067ffffffffffffffff82111715620001585762000157620000fc565b5b80604052505050565b60006200016d620000cd565b90506200017b82826200012b565b919050565b600067ffffffffffffffff8211156200019e576200019d620000fc565b5b620001a982620000eb565b9050602081019050919050565b60005b83811015620001d6578082015181840152602081019050620001b9565b60008484015250505050565b6000620001f9620001f38462000180565b62000161565b905082815260208101848484011115620002185762000217620000e6565b5b62000225848285620001b6565b509392505050565b600082601f830112620002455762000244620000e1565b5b815162000257848260208601620001e2565b91505092915050565b600060208284031215620002795762000278620000d7565b5b600082015167ffffffffffffffff8111156200029a5762000299620000dc565b5b620002a8848285016200022d565b91505092915050565b600081519050919050565b600081905092915050565b6000620002d482620002b1565b620002e08185620002bc565b9350620002f2818560208601620001b6565b80840191505092915050565b60006200030c8284620002c7565b915081905092915050565b600081519050919050565b6000819050602082019050919050565b6000819050919050565b60006200034a825162000332565b80915050919050565b600082821b905092915050565b60006200036d8262000317565b82620003798462000322565b905062000386816200033c565b92506020821015620003c957620003c47fffffffffffffffffffffffffffffffffffffffffffffffffffffffffffffffff8360200360080262000353565b831692505b5050919050565b608051610a1f620003ec600039600061030a0152610a1f6000f3fe608060405234801561001057600080fd5b50600436106100935760003560e01c80638033c00d116100665780638033c00d1461010e5780638da5cb5b1461012c578063d7f4e7d61461014a578063de29278914610166578063de5005cd1461018457610093565b80631053eaa314610098578063301ccdfa146100b65780634494fd9f146100d45780636646586f146100f2575b600080fd5b6100a06101b4565b6040516100ad91906104e4565b60405180910390f35b6100be6101ca565b6040516100cb9190610518565b60405180910390f35b6100dc6101d7565b6040516100e9919061054c565b60405180910390f35b61010c60048036038101906101079190610700565b6101e6565b005b610116610282565b6040516101239190610518565b60405180910390f35b610134610291565b604051610141919061078a565b60405180910390f35b610164600480360381019061015f91906107df565b6102b7565b005b61016e6102c3565b60405161017b9190610518565b60405180910390f35b61019e60048036038101906101999190610838565b6102de565b6040516101ab919061054c565b60405180910390f35b60008060009054906101000a900460ff16905090565b6000600180549050905090565b60006101e1610306565b905090565b600260009054906101000a900473ffffffffffffffffffffffffffffffffffffffff1673ffffffffffffffffffffffffffffffffffffffff163373ffffffffffffffffffffffffffffffffffffffff1614610276576040517f08c379a000000000000000000000000000000000000000000000000000000000815260040161026d906108c2565b60405180910390fd5b61027f8161032e565b50565b600061028c6101ca565b905090565b600260009054906101000a900473ffffffffffffffffffffffffffffffffffffffff1681565b6102c081610348565b50565b60008060019054906101000a900461ffff1661ffff16905090565b6000600182815481106102f4576102f36108e2565b5b90600052602060002001549050919050565b60007f0000000000000000000000000000000000000000000000000000000000000000905090565b806001908051906020019061034492919061045f565b5050565b60008054906101000a900460ff1615610396576040517f08c379a000000000000000000000000000000000000000000000000000000000815260040161038d9061095d565b60405180910390fd5b60008161ffff16036103dd576040517f08c379a00000000000000000000000000000000000000000000000000000000081526004016103d4906109c9565b60405180910390fd5b60016000806101000a81548160ff02191690831515021790555080600060016101000a81548161ffff021916908361ffff1602179055508061ffff163073ffffffffffffffffffffffffffffffffffffffff167f19d22413a5e18244e9883866082c3fd384c3b031c96fac8b7a6a7c4dfbb90bf360405160405180910390a350565b82805482825590600052602060002090810192821561049b579160200282015b8281111561049a57825182559160200191906001019061047f565b5b5090506104a891906104ac565b5090565b5b808211156104c55760008160009055506001016104ad565b5090565b60008115159050919050565b6104de816104c9565b82525050565b60006020820190506104f960008301846104d5565b92915050565b6000819050919050565b610512816104ff565b82525050565b600060208201905061052d6000830184610509565b92915050565b6000819050919050565b61054681610533565b82525050565b6000602082019050610561600083018461053d565b92915050565b6000604051905090565b600080fd5b600080fd5b600080fd5b6000601f19601f8301169050919050565b7f4e487b7100000000000000000000000000000000000000000000000000000000600052604160045260246000fd5b6105c982610580565b810181811067ffffffffffffffff821117156105e8576105e7610591565b5b80604052505050565b60006105fb610567565b905061060782826105c0565b919050565b600067ffffffffffffffff82111561062757610626610591565b5b602082029050602081019050919050565b600080fd5b61064681610533565b811461065157600080fd5b50565b6000813590506106638161063d565b92915050565b600061067c6106778461060c565b6105f1565b9050808382526020820190506020840283018581111561069f5761069e610638565b5b835b818110156106c857806106b48882610654565b8452602084019350506020810190506106a1565b5050509392505050565b600082601f8301126106e7576106e661057b565b5b81356106f7848260208601610669565b91505092915050565b60006020828403121561071657610715610571565b5b600082013567ffffffffffffffff81111561073457610733610576565b5b610740848285016106d2565b91505092915050565b600073ffffffffffffffffffffffffffffffffffffffff82169050919050565b600061077482610749565b9050919050565b61078481610769565b82525050565b600060208201905061079f600083018461077b565b92915050565b600061ffff82169050919050565b6107bc816107a5565b81146107c757600080fd5b50565b6000813590506107d9816107b3565b92915050565b6000602082840312156107f5576107f4610571565b5b6000610803848285016107ca565b91505092915050565b610815816104ff565b811461082057600080fd5b50565b6000813590506108328161080c565b92915050565b60006020828403121561084e5761084d610571565b5b600061085c84828501610823565b91505092915050565b600082825260208201905092915050565b7f6f6e6c79206f776e657200000000000000000000000000000000000000000000600082015250565b60006108ac600a83610865565b91506108b782610876565b602082019050919050565b600060208201905081810360008301526108db8161089f565b9050919050565b7f4e487b7100000000000000000000000000000000000000000000000000000000600052603260045260246000fd5b7f416c72656164792068617320726573756c742e00000000000000000000000000600082015250565b6000610947601383610865565b915061095282610911565b602082019050919050565b600060208201905081810360008301526109768161093a565b9050919050565b7f526573756c742063616e2774206265205a45524f2e0000000000000000000000600082015250565b60006109b3601583610865565b91506109be8261097d565b602082019050919050565b600060208201905081810360008301526109e2816109a6565b905091905056fea26469706673582212203467d5da5ae4e9312e4667e3de7d59d014ec4eae3d8a7f10fd37aa31396bbc4364736f6c63430008140033",
  "devdoc": {
    "kind": "dev",
    "methods": {},
    "version": 1
  },
  "userdoc": {
    "kind": "user",
    "methods": {},
    "version": 1
  },
  "storageLayout": {
    "storage": [
      {
        "astId": 13,
        "contract": "contracts/test/MockController.sol:MockController",
        "label": "_hasResult",
        "offset": 0,
        "slot": "0",
        "type": "t_bool"
      },
      {
        "astId": 15,
        "contract": "contracts/test/MockController.sol:MockController",
        "label": "_result",
        "offset": 1,
        "slot": "0",
        "type": "t_uint16"
      },
      {
        "astId": 18,
        "contract": "contracts/test/MockController.sol:MockController",
        "label": "_outcomeNames",
        "offset": 0,
        "slot": "1",
        "type": "t_array(t_bytes32)dyn_storage"
      },
      {
        "astId": 193,
        "contract": "contracts/test/MockController.sol:MockController",
        "label": "owner",
        "offset": 0,
        "slot": "2",
        "type": "t_address"
      }
    ],
    "types": {
      "t_address": {
        "encoding": "inplace",
        "label": "address",
        "numberOfBytes": "20"
      },
      "t_array(t_bytes32)dyn_storage": {
        "base": "t_bytes32",
        "encoding": "dynamic_array",
        "label": "bytes32[]",
        "numberOfBytes": "32"
      },
      "t_bool": {
        "encoding": "inplace",
        "label": "bool",
        "numberOfBytes": "1"
      },
      "t_bytes32": {
        "encoding": "inplace",
        "label": "bytes32",
        "numberOfBytes": "32"
      },
      "t_uint16": {
        "encoding": "inplace",
        "label": "uint16",
        "numberOfBytes": "2"
      }
    }
  }
}